:020000021000EC
:10B000000080002039B1010079B101007BB101005D
:10B010000000000000000000000000000000000030
:10B020000000000000000000000000007DB10100F1
:10B0300000000000000000007FB1010081B10100AC
:10B0400085B1010087B10100753B02008BB10100A1
:10B050008DB10100000000008FB1010091B101002D
:10B0600093B1010095B1010097B1010099B10100C0
:10B070009BB101009DB101009FB10100A1B1010090
:10B08000A3B10100CDB70100A7B10100000000008D
:10B0900085B80100ABB101005DB50100AFB10100A1
:10B0A000B1B10100B3B101000000000000000000D8
:10B0B0000000000000000000000000000000000090
:10B0C000164B002B00D1144B9D46402292029A1A37
:10B0D000924600218B460F461348144A121A08F074
:10B0E000D3FE0F4B002B00D098470E4B002B00D007
:10B0F00098470020002104000D000D48002802D0D0
:10B100000C4808F085FF08F035FE2000290000F00B
:10B110002FF908F01FFEC046000008000080002044
:10B120000000000000000000382C00207C380020C7
:10B1300011400200214002000948026803210A432D
:10B1400002600849084A094B9B1A05DD002408598A
:10B15000105104349C42FADB0548804705480047FB
:10B16000240500406044020000280020382C002004
:10B17000B5B10100C1B00100FEE7FEE7FEE7FEE762
:10B18000FEE7FEE7FEE7FEE7FEE7FEE7FEE7FEE797
:10B19000FEE7FEE7FEE7FEE7FEE7FEE7FEE7FEE787
:10B1A000FEE7FEE7FEE7FEE7FEE7FEE7FEE7FEE777
:10B1B000FEE7FEE72D4B10B51A78012A19D12C4A6B
:10B1C0001268120715D12B4AE0241168F0220800FA
:10B1D000104021420BD128490968114209D1274961
:10B1E000274A11608021274A0902116001E03028B6
:10B1F000F1D01A78012A0DD11D490968090709D132
:10B20000F0201C4909680140402903D11A49096806
:10B21000014223D01B68DBB2012B25D1144B1B68E4
:10B220001B0721D1134B1A68F0231A40A02A04D11E
:10B23000114A12681A4203D016E0D02A14D1F7E757
:10B24000114B1A68012A03D1C022104B1A600BE07F
:10B250000F4A1A601A68012AFCD1F5E7C121802043
:10B26000C900C0054250D5E710BDC046E00F00F050
:10B27000E40F00F0E80F00F0EC0F00F0DFFF07C074
:10B2800004050040186C004000EC064014EC064039
:10B290007593000048DF704770DF704771DF7047BB
:10B2A00037B5002008F02CFD0024002008F036FD02
:10B2B000164A0194019B154D934203DC019B013317
:10B2C0000193F7E7002008F033FD114A0194019B38
:10B2D000934203DC019B01330193F8E7002008F05F
:10B2E0001DFD0194019BAB4203DC019B01330193E3
:10B2F000F8E7002008F01CFD064A0194019B9342E8
:10B30000D3DC019B01330193F8E7C0461FA107007E
:10B310004FC300008FD003001FB5124B02AC1B7847
:10B320000622FF2B0FD1104B1B78FF2B0BD10F499F
:10B33000684608F06BFD2000FFF7B0FF6B46042263
:10B34000991C0B2001E009200749684408F05EFDC4
:10B35000002021002070FFF79FFF43425841C0B2F8
:10B3600004B010BDF9FF0300F8FF030044410200E0
:10B37000802337B50122DB059A6710211F4A482038
:10B3800000F00AF9002801D000F0F8F81C49042266
:10B39000063101A808F03AFD00234822194901A806
:10B3A00000F096F8002801D000F0E8F8164800F008
:10B3B000CBF8002801D000F0E1F8144807F08EFE29
:10B3C000002801D000F0DAF80024250000F08EF902
:10B3D00007F0A6FD002801D000F0D0F8002D04D021
:10B3E000002C02D1FFF798FF0400FFF753FF00285D
:10B3F00001D10125EAE700F0C1F8FAE7382C002076
:10B400004441020088310020412F0200D12E020069
:10B4100052DF704710DF704761DF704710B5FFF7EC
:10B420003FFF10BDF0B5254B85B01B78002B43D0F6
:10B43000234D244E2B6834685A425341DBB20093AB
:10B4400063425C41E4B2009B002B33D103A8FFF7B9
:10B45000DFFF052808D0002802D000F08FF805E0B3
:10B4600003982B68984701E001230093002C1DD11D
:10B47000154B03A91B8801240B80144B1B68180073
:10B480000193FFF7C9FF0700052809D0002803D062
:10B4900000F074F8002403E00198336898473C00FA
:10B4A000009B002BD2D0002CCDD005E0009B002BC0
:10B4B000CCD001E0002CDBD005B0F0BDD0310020B5
:10B4C000D8310020DC310020D2310020D4310020DE
:10B4D00070B504000720002925D08D0723D112481C
:10B4E0000160124920000A80114A12491360FFF7D7
:10B4F00091FF051E17D101220F4B10491A70C52369
:10B500009B00CB589B0D134201D10D480BE08024CA
:10B510000C4BE4035868002804D01A682800224322
:10B520001A6000E00C6070BDD4310020D2310020E0
:10B53000E03100201DB40100D031002000E100E026
:10B5400002200000D03500200E23002802D0024B3C
:10B550001860002318007047DC310020064B10B53E
:10B560001B68002B05D09847002804D000F006F88F
:10B5700001E0FFF757FF10BDE03100201FB50021AB
:10B5800001AA9060034811805160FFF789FE05B061
:10B5900000BDC0460140000010B50324072314403D
:10B5A00010D1094B1A604B1CDB009BB2D218074B21
:10B5B0001A60074B1C70074B1C70074B1880074B19
:10B5C00019802300180010BDE4310020E83100206C
:10B5D000F5310020F4310020EC310020F63100205C
:10B5E000F0B5274B87B002921A8801900D000393A3
:10B5F00009208A4242D3002404ABDE1D300034709F
:10B6000008F04AFB1F4B204A1B782049DBB29C46BE
:10B6100013780988DBB220008B4201D20133D8B203
:10B620001B4F3C00844509D0147813780022DBB20C
:10B63000994201D90133DAB2134B1A70307808F00D
:10B6400049FB0420BC4219D0124AE3001668F618E0
:10B65000029B3360019B002B0ED0002D0CD0039B6E
:10B660002A0018880C4B444318680199001908F007
:10B67000CDFBB580002001E00020B08007B0F0BD18
:10B68000EC310020F4310020F5310020F6310020AB
:10B69000FFFF0000E4310020E831002013B56B46C5
:10B6A000DC1D00232000237008F0F6FA044A13681A
:10B6B000591C01D001331360207808F00BFB13BD37
:10B6C000F031002013B56B46DC1D002320002370F1
:10B6D00008F0E2FA044A1368002B01D0013B136022
:10B6E000207808F0F7FA13BDF031002070B5124B46
:10B6F000196800291FD1114C114B22781B789A42EE
:10B7000019D020782278C0B2D3B20E4A15880A0028
:10B710009D4201D90133DAB222700B4AC30012688C
:10B72000D3180A4A998812881B685043084A12683D
:10B7300010189847DBE770BDF0310020F43100208D
:10B74000F5310020F6310020E4310020EC310020FA
:10B75000E83100208022194B9202DA67D221802240
:10B76000174B520289005A5040395A5001212F225A
:10B77000596010000138C046C046C046C046C046A9
:10B78000C046C046C046C046C046C046C046F1D1CD
:10B79000996000230B4910000B600138C046C04679
:10B7A000C046C046C046C046C046C046C046C04669
:10B7B000C046C046F1D1044A1370704704E100E06E
:10B7C00000100140F83100201832002070B500242C
:10B7D000224B5C649C64DC641C655C609C60204B58
:10B7E0001B68A34239D01F491F4A8A581F490D6858
:10B7F000551B2D022D0A1A68AA421AD8AD1AA41890
:10B800001A7CDE69002A10D000221A74184A1268C5
:10B81000002A07D0996958699047002805D0FFF79A
:10B82000ADFE02E05A6998699047002E01D03300BE
:10B83000E1E7104B104A197813788B4205D1013398
:10B84000DBB2022B00D10023137013780B4A9B004C
:10B850009C5080220A4B52035A6070BDFC1001407C
:10B86000FC3100200010014004050000F8310020E8
:10B87000003200200C3200200D3200201032002057
:10B88000FCE100E0F0B59648964A036896498DB011
:10B89000059314780B7800229C4212D00133DBB25E
:10B8A000022B01D00B7000E00A700B788F4A9B00CE
:10B8B0009A58059B9B181B021B0A036001230293E5
:10B8C00000E0029200218A4B09911B6808910493C1
:10B8D000884B049C1B780193874B019D1B68069342
:10B8E0007F4B1B680A93854B1B780793013DEDB294
:10B8F000FF2D2CD0069BEE009E1923003078777820
:10B900001C008742F2D018244443776801303C1968
:10B91000B778C0B2874200D100202778022F02D02A
:10B92000032FECD10CE064689C4603941C00002CAF
:10B93000E5D0039FA74200D157E1A446E469F6E7AA
:10B94000002BDCD000211974DB690121F8E7089B8A
:10B95000002B03D06846694B007F1870099B002BB1
:10B9600002D05F4B0A981860614B002900D01C6020
:10B9700002991B68002907D1049A08009B1A5A1ED5
:10B980009341DBB2039327E0002108000C000E0076
:10B99000002B1BD01D68954206D9002901D05449BF
:10B9A0000B60AA1A1A6015E0521B6419DD681E604C
:10B9B000DF69002D07D0D861180005999D6009192D
:10B9C0000902090A59603B000299E1E7002901D008
:10B9D000474A1360012303930027BC46444B1B686E
:10B9E00002933F4B02991B680593444B1B780793C6
:10B9F000019B013BDBB20193FF2B00D182E00A00E7
:10BA0000019BDC00069B1C19002802D00300C069C2
:10BA100023E02378657811009D42E9D0182159432D
:10BA2000656801336918A578DBB223709D4200D1A7
:10BA300020700B781500012B50D14B681E7C002E16
:10BA40004CD18D685D60CD689D600D69DD60496990
:10BA500099610799002900D05E605968059D04919D
:10BA60004D1B27492D022D0A9E688D4202D875195B
:10BA70001D600BE00599049D491B0902090AB142AA
:10BA800002D2761A1E6001E0614619606146596073
:10BA90009960012119746146D961002A1CD01D6882
:10BAA00011688D4203D84D1B1560DA6114E0110056
:10BAB00004920E68AE4206D2AD1BCE690491002EF0
:10BAC00005D03100F5E7761B0E600E0004991D606D
:10BAD000DE611500CB6101E01D0001272A0093E71C
:10BAE000F83100200D3200200C32002010320020EE
:10BAF000FC31002004320020083200200E320020E9
:10BB0000FEFF7F004A4B002F00D019601B68029A8D
:10BB10009A4203D1039A002A00D161E0002B00D1A0
:10BB20005CE01B6843480193434A444B15581B682B
:10BB3000434EE91A09023778090A03310290002FAF
:10BB40001FD18020D1274002BF00D051403FD051AB
:10BB50008027C0203B4CBF024000275027600127B0
:10BB60002F2017600138C046C046C046C046C046B8
:10BB7000C046C046C046C046C046C046C046F1D1D9
:10BB80003770019C8C4200D20C00A821E3181B02E4
:10BB90001B0AC900029C535012592748521B12021B
:10BBA000120A5D1B2D0203322D0AAA4218D9214B1D
:10BBB000C35843502F200138C046C046C046C04637
:10BBC000C046C046C046C046C046C046C046C04645
:10BBD000F1D180221C4B92025A6001E0FFF7BAFDBE
:10BBE00000221A4B1A700DB0F0BD64450BD1DB6911
:10BBF0000121002B07D101270F498F6039000997D8
:10BC00000A93089707972768E4690B97039464469B
:10BC1000039FE761002F00D171E60B9F3C00039F5B
:10BC20003F68BC4664442700039C276067E6C04623
:10BC3000FC3100200405000000100140F831002014
:10BC40001832002000E100E0FCE100E00E320020AC
:10BC5000F0B58901002814DA0F23C4B22340083B51
:10BC6000164A9B0803259B009B18FF222C40AC40E2
:10BC700015001140A540A140DE69AE433143D961B2
:10BC800011E00F4B82089200D218FF2303241F00FB
:10BC9000C0250440E400A7400B40A340AD00565926
:10BCA000BE43334353511F23C02118401E3B8340E2
:10BCB000034A490053501360F0BDC04600ED00E058
:10BCC00000E100E0A12303210B4ADB00D1508023D7
:10BCD00000210A4A9B00D150094B59610131116181
:10BCE0005969064A0029FBD0002305494B6153607E
:10BCF0001360044A1380704700F0014000100040B8
:10BD0000FC10004022320020A8220021124B30B546
:10BD1000D200124C9950083A9C50114C114A0325FC
:10BD20009C50A124104AE4001268520002321A51B9
:10BD30000E4A0F4C9C5080240E4AA40051601D51A5
:10BD4000884203D0116101225A6003E00A4A116857
:10BD50000A4A995030BDC046001000405B06000002
:10BD6000555555003C050000243200200405000014
:10BD700029320020FC1000401C3200200C0500007D
:10BD8000A82300220849DB0010B5CA50A1210124D4
:10BD9000064BC9005C5008315A5005495A50FFF70C
:10BDA00091FF044B1C7010BD0010004000F00140DA
:10BDB00014050000203200200022424B70B55A606A
:10BDC00080220121D20511605A68002AFCD000228D
:10BDD00001213D4B3D481B6880245960D9601A50B1
:10BDE0001800FC3042648264C2640265C1206402AF
:10BDF00080001C500538FF381950A2200424C000D0
:10BE00001C50334C30301C506E3C3248FF3C1C50B0
:10BE10001960314B1A60314B1B681B0716D4304B2D
:10BE2000304A1968304B9950304A1168E522D200E7
:10BE300099502F4A11682F4A99502F4A1168E622CB
:10BE4000D20099502D4A11682D4A99502D4B04204B
:10BE50001D68FC232C009C4332D12B002833DBB21D
:10BE60002C2B2DD8FFF72EFF0321FF201E4B264A37
:10BE70009D5004329950254A9958814399509958B8
:10BE80008E38014399502249224A04209950A62114
:10BE90000122C9005A502049FF305C501F495850B8
:10BEA0001F49053058501F480431585010212000B8
:10BEB0001D4B1C701D4B1A701D4A13690B431361F7
:10BEC00070BDC046FC0000400028002004050000B2
:10BED000710200004405000050320020AC00001048
:10BEE000EC0000102407000000100040F0000010DB
:10BEF000F40000102C070000F8000010FC000010F7
:10BF0000340700001C3200200C050000240500004E
:10BF1000002941761C0500002C05000034050000B6
:10BF200014050000250003002832002020320020E4
:10BF300000ED00E0102170B5C02402252E4A6400F7
:10BF400013690B4313612D4A2D4B1169002936D01B
:10BF5000002111612B4A15512B4A1278042A2ED147
:10BF6000033A5A608022D2009B58284E012B21D1DF
:10BF700031780E33194002291CD87278252A19D835
:10BF8000002906D1B01C224907F018FF00280DD067
:10BF900010E0012900D055230021C8B2904205D2FB
:10BFA0000131701840789842F7D003E0194A13889D
:10BFB0000133138027220021300007F065FF164B64
:10BFC0001B68FC335A6C002A02D000225A64BAE77C
:10BFD000996C0029B7D09A64104B0A491A781F232C
:10BFE0001A401E3B9340C02252008B500C4B1A68E3
:10BFF000501C186070BDC04600ED00E0FC10004011
:10C000000010004000E100E0203200202932002032
:10C010004E41020022320020002800200428002087
:10C02000503200200021044B1A781970034B1B88F2
:10C03000036010007047C046283200201A320020EA
:10C04000084A030012780020012A09D81A00283271
:10C05000D2B22C2A04D89A0702D1034A01301360C5
:10C060007047C046203200201C320020104B1A7846
:10C070000023012A19D8984204D10E4A0E4B1A60A7
:10C0800008220FE0012807D10C4A0B4B1A60092245
:10C090000B4B1A70030008E0022806D1094A064B30
:10C0A0001A600A22064B1A70012318007047C04616
:10C0B0002032002000800040002800200090004036
:10C0C0000428002000A00040F8B5012504005048D5
:10C0D000504E016050483778057000254F4884461F
:10C0E00005800520AF4200D191E0AC4203D1FFF7BB
:10C0F00047FE20008BE0032C0FD1012F04D1012338
:10C10000464A0220138082E0454B464A1B8813436F
:10C1100062461380FFF734FE15E0012FEFD1272987
:10C1200003D9634638001F8071E03D480580012C2B
:10C130000BD1272229003C4807F0A6FE2000FFF77C
:10C14000E3FD04233370280061E0022C5ED1D5B2F8
:10C15000252D03D9634603201F8058E00F241800C3
:10C16000314E2040307075703000012B0BD0002B09
:10C1700004D0022B0AD001330DD02EE02B4902301F
:10C1800007F044FE2EE0B01C210001E055210230F2
:10C1900007F07AFE26E00020032A38D8100007F0C6
:10C1A000CFFD020212180020FFF7AEFDA8210322E6
:10C1B0001F4BC90080205A5001218000195019607E
:10C1C000144B1A7022E00800FFF73AFF002807D04E
:10C1D0001CE00800FFF74AFFF8E701230F4A13802D
:10C1E000042014E00020FFF78FFDA221114BC900AD
:10C1F0001A68114B4132FF325A500D490F4A99507B
:10C2000001210F4A99500223024A13700020F8BD01
:10C210002432002020320020283200201A32002050
:10C22000223200200080FFFF293200204E41020010
:10C23000001000400028002000F00140140500001C
:10C2400004050000F7B5060001910E20002E17D05E
:10C25000002A15D0002B13D0002437780948E500B8
:10C26000295CB94204D145196C68002C05D102E063
:10C270000134432CF3D1062002E001993000A0479D
:10C28000FEBDC0467441020073B506000D001400E7
:10C290000E20002E1FD0002A1DD000233000019355
:10C2A000531C01AA04F017FF002814D1230001AA8F
:10C2B0002900300004F00FFF00280CD1631D01AAF3
:10C2C0002900300004F007FF031E04D1019A093051
:10C2D000954200D1180076BD1FB5140001900E20C4
:10C2E00000290CD0002A0AD000231268039301A869
:10C2F00003AB04F078FE002801D1039B236004B057
:10C3000010BD00001FB5130001220C0003920E2186
:10C31000002811D0002B0FD01A68002A0CD0084A30
:10C320002100009203AA05F071F8011E04D1039ABE
:10C330000931944200D10100080004B010BDC0468C
:10C34000BD2C02001FB513000022039203AA009225
:10C350000A000100602004F01EFF05B000BD10B50A
:10C3600004000E20002A00D1DFE0002B00D1DCE029
:10C37000002C00D1D9E0208801386F2800D9D1E005
:10C3800007F0DEFC38403CD0D0D0D0D0D0D0D0D0D8
:10C39000D0D0D0706C444C5058785C7C5460686449
:10C3A000C87448CCD0D0D0D0D0D0D0D0D0D0D0D07D
:10C3B000D0D0D08CA08084A88894A49C9098D0D011
:10C3C000D0D0D0D0D0D0D0D0D0D0D0D0D0D0D0D06D
:10C3D000D0D0D0B8BCC0ACB4B0D0D0D0D0D0D0D0F9
:10C3E000D0D0D0D0D0D0D0D0D0D0D0D0D0D0D0D04D
:10C3F000D0D0D0C4200000F099F896E0200000F0E2
:10C40000B0F892E0200000F0F2F88EE0200000F09A
:10C4100019FE8AE0200000F043FE86E0200000F0D4
:10C42000A2FF82E0200000F071FF7EE0200000F01B
:10C43000B7FD7AE0200000F0E8FE76E0200000F092
:10C4400081FD72E0200000F059FE6EE0200000F057
:10C450000CFF6AE0200000F0E0FF66E0200000F042
:10C46000A7FE62E0200000F076FE5EE0200000F013
:10C47000A7FF5AE0200002F00DFF56E0200002F076
:10C48000A7FF52E0200001F0FCFA4EE0200001F08E
:10C49000D7FB4AE0200001F05AFB46E0200001F003
:10C4A0004DFC42E0200001F00BFC3EE0200001F0DA
:10C4B00089FC3AE0200001F006FD36E0200001F0A2
:10C4C0001DFD32E0200001F0BDFC2EE0200001F057
:10C4D00079FB2AE0200002F00AFF26E0200001F0AC
:10C4E00060FF22E0200001F0F5FF1EE0200001F0D7
:10C4F000BDFF1AE0200002F009F816E0200001F06C
:10C500006DFF12E0200001F0CAFF0EE0200002F0F3
:10C51000C6FB0AE0200000F0B9FC06E0200000F0B5
:10C52000BFFE02E0002206201A6010BD30B50500F3
:10C530000E20002D14D0002A12D0002B10D0196824
:10C54000053804290CD90121117000215170AC88E3
:10C550009470240AD470287A1071052208001A6099
:10C5600030BDF7B5050016001C000E20002D3DD093
:10C57000002A3BD0002B39D0002301936B46981C36
:10C580000323276803803A0001AB310004F067FD04
:10C5900000282BD1281D01AB3A00310004F05FFDCB
:10C5A000002823D1280001AB22683100083004F0B4
:10C5B00085FD00281AD1280001AB22683100103017
:10C5C00004F04DFD002811D1019B226809309A42E8
:10C5D0000CD05A1C0192EA68511E8A41F254A88874
:10C5E00003F0D6F9002801D1019B2360FEBDF7B509
:10C5F000040016001D000E20002C24D0002A22D09A
:10C60000002B20D0002301936B46981C02232F6837
:10C6100003803A0001AB310004F021FD002812D163
:10C62000201D01AB3A00310004F019FD00280AD1A9
:10C63000200001AB08302A68310004F03FFD0028DB
:10C6400001D1019B2B60FEBD10B50E23002810D038
:10C65000002A0ED0012901D809230AE00478072313
:10C66000712C06D14378002B00D113600229F3D13D
:10C670000023180010BDF7B507000D0014001E00C0
:10C68000002901D10E2022E0002AFBD0136800937C
:10C6900013000A000100712004F08EFC002816D15E
:10C6A000002F14D1002EEDD023680930DA1D01923D
:10C6B000009AD91D8A420AD33278581CEA542818A5
:10C6C000711C062207F0A2FB3800019B2360FEBD0F
:10C6D0007FB51E00012305000C0003930E20002DE2
:10C6E0001CD0002A1AD0002E18D03368002B15D089
:10C6F0001300280003AA04F0EEFC00280ED1084B1A
:10C7000003AA009321003300280004F07FFE031EDB
:10C7100004D1039A0930944200D1180004B070BDCE
:10C72000D91402001FB513000022039203AA00923D
:10C730000A000100702004F02EFD05B000BD7FB599
:10C74000099E05000C000E20002D1CD0002B1AD0D5
:10C75000002E18D00121009303911300210003AA99
:10C76000280004F0B9FD00280DD1089B009603AA0B
:10C770002100280004F0B0FD031E04D1039A093003
:10C78000944200D1180004B070BD10B513000A0027
:10C790000100722004F010FC10BD00000023F0B571
:10C7A00085B004000D00160003930E209C4277D044
:10C7B0009A4275D01368002B72D05A68002A6FD045
:10C7C000DA68002A6CD01168002969D09268002AC2
:10C7D00066D0080020300F68002F60D004318142FD
:10C7E000F9D1110020311068002858D004328A4253
:10C7F000F9D1012D01D8092052E022780720732AAF
:10C800004ED1713A03926278012A41D103AA2900DC
:10C81000200004F060FC002842D1224A33680092D4
:10C82000043303AA2900200004F0F0FD002837D1CA
:10C83000336803AA08332900200004F04CFC0028C8
:10C840002ED1194A336800920C3303AA2900200024
:10C8500004F0DCFD002823D1336803AA103329003B
:10C86000200004F00DFC00281AD1336803AA12330B
:10C870002900200004F004FC002811D1336803AA29
:10C8800014332900200005F01BFC002802D007E02B
:10C8900000233360039B00209D42ACD100E00E20BA
:10C8A00005B0F0BDD9140200F515020010B5130053
:10C8B0000A000100732004F07FFB10BD10B51300C7
:10C8C0000A000100742004F077FB10BD10B50E23A0
:10C8D000002810D0002A0ED01468002C0BD0053B85
:10C8E000022908D10178023B792904D14378002B31
:10C8F00000D113600023180010BDF7B507000D002C
:10C9000014001E00002901D10E201CE0002AFBD0DB
:10C910001368019313000A000100792004F04CFB16
:10C92000002810D1002F0ED1002EEDD02368019ADF
:10C93000991C09308A4206D338003288ED182A70D3
:10C94000120A6A702160FEBD13B5130004000E20A8
:10C95000002A0ED0002C0CD00538032909D1012261
:10C96000019222780238782A03D101AA200004F02B
:10C9700087FB16BD10B513000A000100782004F0F3
:10C980001BFB10BD7FB505000C001E000E20002D06
:10C9900032D0002A30D0002B2ED0012303934B1E1F
:10C9A000012B01D8092027E01300280003AA04F076
:10C9B00078FB039B9C42F5D0330003AA210028009A
:10C9C00004F096FB3378012B05D0002B04D0022B0A
:10C9D00011D1102300E006239BB20193009303AA18
:10C9E000089B2100280004F03AFC002804D1039B96
:10C9F0009C42D7D100E0072004B070BD10B51300F1
:10CA00000A000100802004F0D7FA10BD7FB51E0097
:10CA1000012305000C0003930E20002D1CD0002ADA
:10CA20001AD0002E18D03368002B15D01300280020
:10CA300003AA04F025FB00280ED1084B03AA00939B
:10CA400021003300280004F0E1FC031E04D1039A06
:10CA50000930944200D1180004B070BDC71D020017
:10CA600010B513000A0001007E2004F0A5FA10BDE5
:10CA700073B505000C001E000E20002D44D0002AC6
:10CA800042D0002B40D01B68002B3DD0032901D899
:10CA9000092039E02B780720752B35D1743B0193A1
:10CAA0002800130001AA04F0FCFA019BEA5C012AA9
:10CAB00020D15A1C093301929C42E9D3336801AA60
:10CAC0002100280004F0EDFA336801AA21002800B3
:10CAD000023304F0E6FA336801AA21002800043387
:10CAE00004F0DFFA336801AA06332100280004F0BD
:10CAF000D8FA05E00B20002A06D1013301933260F9
:10CB0000019B9C42C4D1002076BD10B513000A00E1
:10CB10000100752004F050FA10BDF0B587B0050093
:10CB20000C00160003930E20002D2AD0002A28D0D6
:10CB300000230593994201D1092022E00B2702AB83
:10CB4000FF183B00280005AA04F0D2FA3B78072022
:10CB5000872B16D1059BE31A012BEDD9330005AACB
:10CB60002100280004F09DFA002305AA009321006B
:10CB7000039B280004F04AFC002802D1059B9C423C
:10CB8000DAD107B0F0BD0000F0B587B00600039120
:10CB900015001C000E20002A18D0002B16D03100E2
:10CBA00079301F6804F008FA00280FD12368059334
:10CBB000002E0BD1064B3A000093290005AB0398D9
:10CBC00004F00FFC002801D1059B236007B0F0BDE5
:10CBD00093180200F0B51F00012385B005000C007A
:10CBE0000A9E03930E20002D30D0002A2ED0136809
:10CBF000002B2BD0002F29D03B68002B26D0002EF5
:10CC000024D03368002B21D0114B2800009313004F
:10CC100003AA04F0FBFB002818D10E4B03AA0093D3
:10CC200021003B00280004F0F1FB00280ED10A4B44
:10CC300003AA009321003300280004F0E7FB00283A
:10CC400004D1039B09309C4200D1002005B0F0BD07
:10CC5000D9140200DD1A02007B19020010B513007E
:10CC60000A0001008C2004F0A7F910BD10B51300D4
:10CC70000A0001008D2004F09FF910BD73B5040077
:10CC80000D0016000E20002B25D01A68002A22D095
:10CC9000002901D109201EE06178012901D907206E
:10CCA00019E002200190012908D11300290001AAEE
:10CCB000200004F0E5F9002802D00CE000221A6000
:10CCC000019B5A1C9542E5D3E35C012BE7D8002079
:10CCD000834200D1306076BDF0B587B00600029186
:10CCE00003921D000C9C0E20002B18D0002C16D097
:10CCF00023002A0031006F30276804F05DF92368B3
:10CD0000059300280BD1002E09D105AB00932A0012
:10CD10003B000399029804F088FA059B236007B052
:10CD2000F0BD0000F0B585B005000C001E000A9FA4
:10CD30000E20002D21D0002A1FD0002B1DD0002F47
:10CD40001BD0012303934B1E032B01D8092014E0B1
:10CD50000B4B28000093130003AA04F057FB002894
:10CD60000BD10097330003AA2100280004F0CFFA6A
:10CD7000002802D1039B9C42E8D105B0F0BDC0461B
:10CD80005D18020010B513000A0001007C2004F0B9
:10CD900013F910BDF0B585B005000C0001921E001E
:10CDA0000E20002D27D0002A25D0002E23D00023CE
:10CDB000039302ABDF1C3B0003AA280004F08BF9AD
:10CDC000002818D13B780730762B14D1019B03AA99
:10CDD0002100280004F054F900280CD1330003AAE4
:10CDE0002100280004F077F9031E04D1039A0930CA
:10CDF000944200D1180005B0F0BD10B513000A0030
:10CE00000100762004F0D8F810BD0000F0B585B020
:10CE100004000D001F000A9E0E20002C28D0002ABE
:10CE200026D0002E24D0002B22D03368002B1FD018
:10CE30003B68002B1CD0012303934B1E0538012BAC
:10CE400016D91300200003AA04F02BF9094B03AAFA
:10CE5000009329003B00200004F0D8FA002807D1F5
:10CE6000054B03AA009329003300200004F0CEFAFA
:10CE700005B0F0BD7D1A0200D717020010B51300EF
:10CE80000A000100852004F097F810BDF0B587B0C6
:10CE90000400150003930E20002C51D0002A4FD01F
:10CEA000002B4DD000230593039B04381E6802AB72
:10CEB000C0181D2305AF038032003B00290004F099
:10CEC000CEF800283CD1201D3B003200290004F0A0
:10CED000C6F8002834D120003B0032002900083079
:10CEE00004F0E3FA00282BD120003B003200290097
:10CEF0000F3004F0E3F8002822D1062202AB0930FB
:10CF0000C018237C1A401100DA08D200DB070A435C
:10CF1000DB0F1343037032003B00290004F0CEF80E
:10CF200000280DD12000217C1130C9080097330062
:10CF30002A0004F03BFA002802D1039B059A1A60EC
:10CF400007B0F0BDF7B5040015001E000E20002C40
:10CF500024D0002A22D0002B20D0002301936B463E
:10CF6000981C1723376803803A0001AB290004F0AE
:10CF700076F8002812D1201D01AB3A00290004F0F8
:10CF80006EF800280AD1200001AB08303A002900D1
:10CF900004F094F8002801D1019B3360FEBD00002D
:10CFA000F0B51F00002385B0029306336B449C4606
:10CFB000150019236246040013800E20002C3DD07A
:10CFC000002D3BD0002F39D03E6802AB3200290043
:10CFD000604604F044F8002830D1201D02AB320036
:10CFE000290004F03CF8002828D1200002AB3200D0
:10CFF0002900083004F031FE00281FD1637A5B0756
:10D0000003D4029B00203B6018E0A08803A902F033
:10D0100091FC002812D1039B2D30FF305843084B60
:10D020003200C018043002AB290004F0A1FD002832
:10D0300004D1A08802F066FC0028E2D005B0F0BD63
:10D04000D8350020F7B5040015001E000E20002C76
:10D0500025D0002A23D0002B21D023880738122B7B
:10D060001DD10023376801933A0001AB290020004D
:10D0700003F0F5FF002812D1201D01AB3A00290072
:10D0800003F0EDFF00280AD1200001AB08303A0080
:10D09000290004F06EFC002801D1019B3360FEBD25
:10D0A000F7B5040015001E000E20002C25D0002A24
:10D0B00023D0002B21D0238807381F2B1DD100231C
:10D0C000376801933A0001AB2900200003F0C7FF45
:10D0D000002812D1201D01AB3A00290003F0BFFF48
:10D0E00000280AD1200001AB08303A00290004F0E2
:10D0F0003CFC002801D1019B3360FEBDF7B5040064
:10D1000015001E000E20002C24D0002A22D0002B57
:10D1100020D0002301936B46981C1A2337680380A4
:10D120003A0001AB290003F09AFF002812D1201D1C
:10D1300001AB3A00290003F092FF00280AD1200039
:10D1400001AB08303A00290004F0B3FB002801D1FC
:10D15000019B3360FEBDF7B5040015001E000E20D4
:10D16000002C24D0002A22D0002B20D000230193B1
:10D170006B46981C1023376803803A0001AB2900E6
:10D1800003F06DFF002812D1201D01AB3A002900E9
:10D1900003F065FF00280AD1200001AB08303A00F7
:10D1A000290004F0AAFB002801D1019B3360FEBDD9
:10D1B000F7B5040015001E000E20002C24D0002A14
:10D1C00022D0002B20D0002301936B46981C112302
:10D1D000376803803A0001AB290003F040FF0028C4
:10D1E00012D1201D01AB3A00290003F038FF0028BE
:10D1F0000AD1200001AB08303A00290004F0EBFB13
:10D20000002801D1019B3360FEBD73B51D000023D2
:10D210000600140001930E209E4225D09A4223D08E
:10D220009D4221D02A6805380A2A1DD915223100CD
:10D2300022706370B3880831A3701B0AE3700F3A41
:10D24000201D06F0E3FD0A2301936B46D81CB37B37
:10D250002A68DB07DB0F0370210001AB03F02EFF10
:10D26000002801D1019B2B6076BD30B505000E2052
:10D27000002D14D0002A12D0002B10D019680538C8
:10D2800004290CD91C21117000215170AC889470B4
:10D29000240AD470287A1071052208001A6030BD63
:10D2A000F7B5040015001F000E20002C2DD0002A19
:10D2B0002BD0002B29D0002301936B46981C2023F0
:10D2C0003E680380320001AB290003F0C8FE00284D
:10D2D0001BD1201D01AB3200290003F0C0FE002845
:10D2E00013D1200001AB32002900093004F0DDF831
:10D2F00000280AD1200001AB08303200290003F0D9
:10D30000DDFE002801D1019B3B60FEBDF7B50400A6
:10D3100015001E000E20002C24D0002A22D0002B45
:10D3200020D0002301936B46981C14233768038098
:10D330003A0001AB290003F092FE002812D1201D13
:10D3400001AB3A00290003F08AFE00280AD1200030
:10D3500001AB08303A00290004F058FB002801D145
:10D36000019B3360FEBDF7B5040015001E000E20C2
:10D37000002C24D0002A22D0002B20D0002301939F
:10D380006B46981C1323376803803A0001AB2900D1
:10D3900003F065FE002812D1201D01AB3A002900E0
:10D3A00003F05DFE00280AD1200001AB08303A00EE
:10D3B000290004F0D1FC002801D1019B3360FEBD9F
:10D3C000F7B5040015001E000E20002C24D0002A02
:10D3D00022D0002B20D0002301936B46981C1E23E3
:10D3E000376803803A0001AB290003F038FE0028BB
:10D3F00012D1201D01AB3A00290003F030FE0028B5
:10D400000AD1200001AB08303A00290004F0DEFB0D
:10D41000002801D1019B3360FEBD30B505000E2010
:10D42000002D14D0002A12D0002B10D01968053816
:10D4300004290CD91B21117000215170AC88947003
:10D44000240AD470287A1071052208001A6030BDB1
:10D4500010B50E23002813D0002A11D01468002C18
:10D460000ED0012901D809230AE0047807237B2C78
:10D4700006D14378002B00D113600229F3D1002399
:10D48000180010BDF7B507000C0015001E0000299C
:10D4900001D10E202FE0002AFBD013680193130066
:10D4A0000A0001007B2003F087FD002823D1002F14
:10D4B00021D1002EEDD02B6801991A0008320930D5
:10D4C000914218D33188E0180170090A41707088C0
:10D4D000991C61180870000A4870B088191D6118FD
:10D4E0000870000A48703800F1880633E41821708B
:10D4F000090A61702A60FEBD73B505000C001600B4
:10D50000002801D10E2037E0002AFBD0012901D8E4
:10D51000092031E0037807207A2B2DD1783B019345
:10D520006B78002B02D0012B02D024E013601DE0A9
:10D530000929EDD91368002BE4D001AA280003F0D3
:10D54000B0FD336801AA02332100280003F0A9FDD1
:10D55000336801AA04332100280003F0A2FD3368D8
:10D5600001AA06332100280003F09BFD019B002047
:10D570009C42CDD100E00B2076BD10B513000A000F
:10D5800001007A2003F018FD10BD73B505000C00F2
:10D590001E000E20002D24D0002A22D0002B20D0E7
:10D5A000069B002B1DD0012328000193130001AA24
:10D5B00003F066FD002814D1330001AA21002800E1
:10D5C00003F089FD00280CD1069B01AA2100280048
:10D5D00003F081FD031E04D1019A0930944200D169
:10D5E000180076BD10B513000A000100882003F072
:10D5F000E3FC10BD13B513000C000E2100280ED063
:10D60000002A0CD001222100019201AA03F038FD6A
:10D61000011E04D1019A0931944200D10100080091
:10D6200016BD10B513000A000100892003F0C4FCE8
:10D6300010BD00001FB5130001220C0003920E2143
:10D64000002811D0002B0FD01A68002A0CD0084AED
:10D650002100009203AA03F0D9FE011E04D1039A0F
:10D660000931944200D10100080004B010BDC04649
:10D67000DD1A020010B513000A0001008A2003F031
:10D680009BFC10BD10B513000A0001008B2003F0B5
:10D6900093FC10BDF0B587B005000C001F000C9E78
:10D6A0000E20002D40D0002A3ED0002B3CD0002E72
:10D6B0003AD00D9B002B37D03B68002B34D0336819
:10D6C000002B31D00D9B1B680393002B2CD0012322
:10D6D00005934B1E012B01D8092025E013002800DB
:10D6E00005AA03F0DEFC114B05AA009321003B00C4
:10D6F000280003F08BFE002816D10D4B05AA0093DD
:10D7000021003300280003F081FE00280CD1094BD2
:10D7100005AA009321000D9B280003F077FE002846
:10D7200002D1059B9C42D7D107B0F0BDD7170200AC
:10D73000871402002D15020010B513000A00010025
:10D74000862003F039FC10BDF0B587B003930123A8
:10D7500005000C000C9E0D9F05930E20002D36D069
:10D76000002A34D0039B002B31D0002E2FD03368F9
:10D77000002B2CD0002F2AD03B68002B27D0130081
:10D78000280005AA03F07CFC002820D1039B05AAF1
:10D790002100280003F09FFC002818D10D4B05AA9A
:10D7A000009321003300280003F030FE00280ED142
:10D7B000094B05AA009321003B00280003F026FE38
:10D7C000031E04D1059A0930944200D1180007B015
:10D7D000F0BDC046C71D02009F1B0200F0B51D0032
:10D7E000002387B00593136807000E00140003930D
:10D7F00013000A0001007F2003F0DEFB002812D195
:10D80000002F10D10E30002D0DD02368039A059300
:10D81000064B31000093280005AB03F0E2FD002821
:10D8200001D1059B236007B0F0BDC046711B02000B
:10D8300013B513000C000E2100280ED0002A0CD0C6
:10D8400001222100019201AA03F045FC011E04D12E
:10D85000019A0931944200D10100080016BD10B5AB
:10D8600013000A000100772003F0A6FB10BD0000A2
:10D87000F0B585B005000C001F000A9E0E20002D9B
:10D8800031D0002A2FD0002B2DD01B68002B2AD09E
:10D89000002E28D03368002B25D0022901D809207A
:10D8A00021E02B780B20952B1DD1943B039328006E
:10D8B000130003AA03F0F5FB0C4B03AA009321000D
:10D8C0003B00280003F0A2FD00280CD1084B03AA5E
:10D8D000009321003300280003F098FD002802D1B6
:10D8E000039B9C42DBD105B0F0BDC046332A020049
:10D8F0001F23020010B513000A000100952003F059
:10D900005BFB10BDF0B585B005000C001E000A9F42
:10D910000E20002D20D0002A1ED0002B1CD01B680A
:10D92000002B19D0002F17D0012303934B1E042B7B
:10D9300001D8092010E01300280003AA03F0B1FB6E
:10D940000097330003AA2100280003F0DCFB002825
:10D9500002D1039B9C42ECD105B0F0BD1FB5130072
:10D960000022039203AA00920A000100972003F00C
:10D9700012FC05B000BD73B51E00012305000C00AC
:10D9800001930E20002D30D0002A2ED0002E2CD056
:10D990003368002B29D0032901D8092025E0130082
:10D9A000280001AA03F07DFB019B5A1C0192EA5C4E
:10D9B000002A02D0012A02D016E032600FE00533BF
:10D9C0009C42EAD3336801AA2100280003F069FBD6
:10D9D000336801AA02332100280003F062FB019B97
:10D9E00000209C42D9D100E00B2076BD10B5130079
:10D9F0000A000100922003F0DFFA10BD73B51E008B
:10DA0000012305000C0001930E20002D30D0002AC8
:10DA10002ED0002E2CD03368002B29D0032901D81A
:10DA2000092025E01300280001AA03F03AFB019B1E
:10DA30005A1C0192EA5C002A02D0012A02D016E0A8
:10DA400032600FE005339C42EAD3336801AA21001B
:10DA5000280003F026FB336801AA023321002800C6
:10DA600003F01FFB019B00209C42D9D100E00B205A
:10DA700076BD10B513000A000100932003F09CFA54
:10DA800010BDF7B501000E2000295FD0002A5DD03F
:10DA9000002B5BD01868092801D8092056E03220F5
:10DAA0001070002050708C889470240AD470CC8838
:10DAB0001471240A54710C899471240AD4718C89CC
:10DAC0001472240A54728C89A446092465466C4356
:10DAD0001D680A34AC42E0D80C0085B20A34093221
:10DAE000AC452DD9A588062655702D0A9570A579C7
:10DAF000D5700A2545434D1908350195AD7A013099
:10DB00002E403700EE07F60F3E4308272F403E43D6
:10DB100010272F40374320262E40374340263540DC
:10DB20003D431571019DED7AED07ED0F5571658946
:10DB300095712D0AD571A58915722D0A5572CCE7FC
:10DB40000922614600204A430A321A60FEBDF7B539
:10DB5000040015001F000E20002C32D0002A30D007
:10DB6000002B2ED000233E680193320001AB290028
:10DB7000200003F074FA002823D1201D01AB3200ED
:10DB8000290003F06CFA00281BD1A01D01AB320064
:10DB9000290003F064FA002813D1200001AB320001
:10DBA0002900083003F05BFA00280AD1200001ABFD
:10DBB0000C303200290004F053FB002801D1019BF6
:10DBC0003B60FEBDF7B5040015001F000E20002CC1
:10DBD00035D0002A33D0002B31D0002301936B467F
:10DBE000981C37233E680380320001AB290003F004
:10DBF00036FA002823D1201D01AB3200290003F0A2
:10DC00002EFA00281BD1A01D01AB3200290003F021
:10DC100026FA002813D1200001AB32002900083079
:10DC200003F01DFA00280AD1200001AB0C303200AD
:10DC3000290004F04AFB002801D1019B3B60FEBD96
:10DC400070B50E21002839D0002A37D0002B35D0EE
:10DC50001968092901D8092130E033211170002108
:10DC6000517084889470240AD470C4881471240A72
:10DC7000547104899471240AD47184891472240A19
:10DC80005472052485891E686C430A34B442E2D874
:10DC900006300532A9420CD0048901315471240A9E
:10DCA0009471448989B2D471240A1472047B547229
:10DCB000EEE7052251430A3119600021080070BDCA
:10DCC00070B504001D000E20002C36D0002A34D080
:10DCD000002B32D01B680C2B01D809202DE03923F2
:10DCE000137000235370A38893701B0AD370E388CA
:10DCF00013711B0A5371238993711B0AD371A38972
:10DD000013721B0A5372A37B9372238AD3721B0A6A
:10DD10001373268A296833000D338B42DDD80D2317
:10DD2000002E08D02100D21810001231320006F067
:10DD30006DF8238A0D3300202B6070BD70B50E2165
:10DD400000283DD0002A3BD0002B39D01968092982
:10DD500001D8092134E030211170002151708488EC
:10DD60009470240AD470C4881471240A54710489EC
:10DD70009471240AD47184891472240A5472072479
:10DD800085891E686C430A34B442E2D808300732F1
:10DD9000A94210D0C4880131D470240A1471047AC5
:10DDA00089B2547144899471240AD471848914729B
:10DDB000240A5472EAE7072251430A31196000210C
:10DDC000080070BD70B504001D000E20002C38D076
:10DDD000002A36D0002B34D01B680D2B01D8092027
:10DDE0002FE03623137000235370A38893701B0A0F
:10DDF000D370E38813711B0A5371238993711B0A33
:10DE0000D371A38913721B0A5372E38993721B0A9D
:10DE1000D372238A13731B0A5373268A296833002B
:10DE20000E338B42DBD80E23002E08D02100D218EF
:10DE300010001231320005F0E9FF238A0E33002072
:10DE40002B6070BDF7B51F000023019302336B44B4
:10DE50009C46150031236246040013800E20002CDE
:10DE600030D0002D2ED0002F2CD03E6801AB3200D8
:10DE70002900604603F0F3F8002823D1201D01ABF0
:10DE80003200290003F0EBF800281BD1A01D01ABE4
:10DE90003200290003F0E3F8002813D1200001AB81
:10DEA00032002900083003F0DAF800280AD12000F7
:10DEB00001AB0C303200290004F067FA002801D1D0
:10DEC000019B3B60FEBD30B505000E20002D14D037
:10DED000002A12D0002B10D01968053804290CD95B
:10DEE0003A21117000215170AC889470240AD470CA
:10DEF000287B1071052208001A6030BD70B504003F
:10DF00001D000E20002C3AD0002A38D0002B36D02D
:10DF10001B68834201D8092031E0382313700023A5
:10DF20005370A38893701B0AD370E38813711B0A84
:10DF30005371238993711B0AD371A38913721B0A2E
:10DF40005372A37B9372238AD3721B0A1373638A5F
:10DF500053731B0A9373668A296833000F338B420D
:10DF6000D9D80F23002E08D02100D2181000143168
:10DF7000320005F04BFF638A0F3300202B6070BD29
:10DF800073B505000C001E000E20002D19D0002ACC
:10DF900017D0002B15D0012328000193130001AAEC
:10DFA00003F06EF800280CD1330001AA21002800EC
:10DFB00003F066F8031E04D1019A0930944200D19F
:10DFC000180076BD10B513000A000100992002F078
:10DFD000F3FF10BDF7B51F00012305000C00089EDC
:10DFE00001930E20002D38D0002A36D0002F34D0D7
:10DFF000002E32D03368002B2FD0052901D80920FC
:10E000002BE01300280001AA03F04BF83B0001AA03
:10E010002100280003F045F8019B5A1C0192EA5C9C
:10E02000002A02D0012A02D016E032600FE0043349
:10E030009C42E4D3336801AA2100280003F031F8A0
:10E04000336801AA02332100280003F051F8019B34
:10E0500000209C42D3D100E00B20FEBD10B5130080
:10E060000A000100902002F0A7FF10BD73B5050063
:10E070000C001E000E20002D24D0002A22D0002BE0
:10E0800020D0069B002B1DD00123280001931300F4
:10E0900001AA02F0F5FF002814D1330001AA2100E3
:10E0A000280002F0EDFF00280CD1069B01AA2100F8
:10E0B000280002F0E5FF031E04D1019A09309442C2
:10E0C00000D1180076BD10B513000A00010096209B
:10E0D00002F072FF10BD73B51E00012305000C0095
:10E0E00001930E20002D30D0002A2ED0002E2CD0EF
:10E0F0003368002B29D0032901D8092025E013001B
:10E10000280001AA02F0CDFF019B5A1C0192EA5C93
:10E11000002A02D0012A02D016E032600FE0053357
:10E120009C42EAD3336801AA2100280002F0B9FF1B
:10E13000336801AA02332100280002F0B2FF019BDC
:10E1400000209C42D9D100E00B2076BD10B5130011
:10E150000A000100912002F02FFF10BDF0B587B03A
:10E1600005000C0003921E000E20002D2DD0002A69
:10E170002BD0002E29D03368002B26D000230B276C
:10E18000059302ABFF183B0005AA280002F0A3FF8D
:10E1900000281AD13B780730982B16D1039B05AA8B
:10E1A0002100280002F06CFF00280ED1084B05AAC0
:10E1B000009321003300280003F028F9031E04D146
:10E1C000059A0930944200D1180007B0F0BDC0464E
:10E1D000CD23020010B513000A000100982002F0C0
:10E1E000EBFE10BDF0B587B005000C001F000C9EC3
:10E1F0000E20002D3ED0002A3CD0002B3AD0002E1D
:10E2000038D00D9B002B35D03B68002B32D03368C3
:10E21000002B2FD00D9B1B680393002B2AD00123CA
:10E220000593022901D8092024E01300280005AA3B
:10E2300002F037FF104B05AA009321003B00280095
:10E2400003F0E4F8002815D10C4B05AA0093210037
:10E250003300280003F0DAF800280BD100900D9B62
:10E2600005AA2100280003F0D1F8002802D1059B5F
:10E270009C42D8D107B0F0BD792502009926020052
:10E28000F0B585B007000D00140003930E2000299F
:10E2900017D0002A15D016680538042E11D913009E
:10E2A00099300A00390002F087FE002809D1002FBA
:10E2B00007D1054B3200009329002300039803F097
:10E2C00090F805B0F0BDC04609270200F0B585B052
:10E2D00005000C001F000A9E0E20002D30D0002AE1
:10E2E0002ED0002B2CD01B68002B29D0002E27D03D
:10E2F0003368002B24D0032901D8092020E02B7893
:10E300000720A32B1CD1A23B03932800130003AAD0
:10E3100002F0C7FE0B4B03AA009321003B0028002C
:10E3200003F074F800280BD10090330003AA2100F9
:10E33000280003F06BF8002802D1039B9C42DCD13B
:10E3400005B0F0BD99260200F0B585B014006A460C
:10E3500007000D00D3800E20002920D0002C1ED0F5
:10E360002668042E01D8092019E00A00230039008C
:10E37000A32002F021FE002811D1002F0FD1236825
:10E38000039302339E42EED3684603AB320029006A
:10E39000063002F064FE002801D1039B236005B023
:10E3A000F0BD30B505000E20002D16D0002A14D087
:10E3B000002B12D01968053805290ED95321117088
:10E3C00000215170AC889470240AD470E8881071D0
:10E3D000000A5071062208001A6030BDF0B5040032
:10E3E00087B015001E000E20002A3AD0002B38D02E
:10E3F000002C36D000230493336804AF0393039AB0
:10E400003B002900200002F02AFE002829D1201D0F
:10E410003B00039A290002F022FE002821D1A01D12
:10E420003B00039A290004F025FA002819D1A379AA
:10E43000022B13D1A08805A901F0B6FA05280DD04A
:10E440004C20059B2A005843074B18180189009758
:10E450003368406802F0E9FE002802D10020049BE6
:10E46000336007B0F0BDC0463038002010B504005E
:10E470000E20002C12D0002A10D0002B0ED01968CC
:10E48000053803290AD95421117000215170A08840
:10E490009070000AD070042208001A6010BD30B5D8
:10E4A00005000E20002D14D0002A12D0002B10D011
:10E4B0001968053804290CD95221117000215170B6
:10E4C000AC889470240AD470A879107105220800D1
:10E4D0001A6030BD30B505000E20002D14D0002A82
:10E4E00012D0002B10D01968053804290CD95521F9
:10E4F000117000215170AC889470240AD470A879EE
:10E500001071052208001A6030BD0000F0B505004A
:10E5100089B014001E000E20002D3FD0002A3DD0EF
:10E52000002B3BD000230693336806AF039302AB66
:10E53000C0185023039A038021003B0002F08FFD96
:10E5400000282BD1281D3B00039A210002F087FDF3
:10E55000002823D1A81D3B00039A210004F01CF9D8
:10E5600000281BD12B7B012B01D0062B13D1A888AF
:10E5700007A901F019FA05280DD04C20079B2200AD
:10E580005843074B1818018900973368406802F018
:10E590004CFE002802D10020069B336009B0F0BD7C
:10E5A000303800207FB505000C001E000E20002D25
:10E5B00022D0002A20D0002B1ED01B68002B1BD09D
:10E5C000032901D8092017E02B780720A62B13D1A7
:10E5D000A53B03932800130003AA02F062FD074B3A
:10E5E00003AA009321003300280002F00FFF002847
:10E5F00002D1039B9C42E5D104B070BD49270200C3
:10E60000F0B587B006000D00140003930E2000291A
:10E610001AD0002A18D01768130098300A00310069
:10E6200002F0CAFC00280FD1002E0DD123683A0059
:10E630000593064B29000093039805AB02F0D1FE29
:10E64000002801D1059B236007B0F0BD5F100200D8
:10E65000F7B5089E04000D001F000E20002C23D0EB
:10E66000002A21D0002B1FD0002E1DD0062901D05A
:10E67000092019E023780720A12B15D1A03B019395
:10E680002000130001AA02F00CFD3B0001AA2900A2
:10E69000200002F006FD019B5A1CE35C002B00D118
:10E6A0003360062AE4D10020FEBDF0B587B0070034
:10E6B0000D0014000293002901D10E201EE0002A53
:10E6C000FBD0136805AE0393002300960593130057
:10E6D0000A000100A12002F05EFD00280ED1002FEB
:10E6E0000CD1029B002BE8D03300039A290002983A
:10E6F00002F0B5FC002801D1059B236007B0F0BDF6
:10E700007FB505000C001E000E20002D1AD0002A37
:10E7100018D0012303934B1E012B01D8092011E0CF
:10E720001300280003AA02F0BCFC074B03AA0093C5
:10E7300021003300280002F069FE002802D1039B6B
:10E740009C42EBD104B070BD2F29020010B513001C
:10E750000A000100A82002F02FFC10BDF0B585B022
:10E7600005000C001F000A9E0E20002D2FD0002A4D
:10E770002DD0002B2BD01B68002B28D0002E26D0AC
:10E780003368002B23D0012303934B1E022B01D8A7
:10E7900009201CE01300280003AA02F09CFC0028BA
:10E7A00015D10C4B03AA009321003B00280002F076
:10E7B0002DFE00280BD10090330003AA2100280071
:10E7C00002F024FE002802D1039B9C42E0D105B058
:10E7D000F0BDC046332A0200F0B587B007000D0037
:10E7E00014000293002901D10E201EE0002AFBD064
:10E7F000136805AE039300230096059313000A00E7
:10E800000100A02002F0C7FC00280ED1002F0CD17F
:10E81000029B002BE8D03300039A2900029802F0F3
:10E820001EFC002801D1059B236007B0F0BD73B525
:10E8300005001E000E24002824D0002A22D0002B20
:10E8400020D0069B002B1DD0072901D0092419E0F8
:10E8500003780C00A72B15D1A63B0193130001AA46
:10E8600002F01FFC330001AA2100280002F019FC6D
:10E87000069B01AA2100280002F013FC019B072B34
:10E88000E4D10024200076BD10B513000A00010079
:10E89000A72002F091FB10BD73B5069D0C00002867
:10E8A00001D10E213CE0002BFBD0002DF9D0032933
:10E8B00001D8092134E006780721AA2E30D1002A98
:10E8C000EFD007990029ECD08178467809023143CE
:10E8D000118004220192C278012A0CD1052CE8D9BA
:10E8E00029680029DDD04279057912022A430A807D
:10E8F0000622019201E000222A60019A511C8C42FA
:10E90000D7D3825C0191002A00D11A602100079BB5
:10E9100001AA02F084FB011E02D1019B9C42C8D1D6
:10E92000080076BDF7B506000D001400019300291C
:10E9300001D10E232FE0002AFBD01768042F01D845
:10E94000092328E013000A000100AA2002F034FB8A
:10E95000031E20D1002E1ED1019B002BE9D0089B65
:10E96000002BE6D02068811C8F42E9D31B882A182F
:10E97000137003301B0A53708742E1D3089B1A8837
:10E98000012386186B54B742DAD32818019905F091
:10E990003DFA002326601800FEBDF7B51E000123D6
:10E9A00004000D0001930E20002C4AD0002A48D00C
:10E9B000002E46D03368002B43D0089B002B40D05C
:10E9C000099B002B3DD0072901D8092039E013000D
:10E9D000200001AA02F065FB019B5A1C0192E25C37
:10E9E000002A02D0012A07D02AE0053332609D4276
:10E9F000EBD1089B1A801CE06B469F1C3B0001AAD0
:10EA00002900200002F04DFB089B3A881B889342A6
:10EA1000DBD3089B01991A800B1D9B189D42D4D112
:10EA20003068611805F0F2F9089B019A1B88D31829
:10EA30000193099B01AA2900200002F0F0FA00E0EE
:10EA40000B20FEBD10B513000A000100A92002F042
:10EA5000B3FA10BDF7B51F00002304000E00089D97
:10EA600001930E209C4246D09A4244D09F4242D00D
:10EA70009D4240D02B68002B3DD05B68002B3AD0E4
:10EA8000052901D8092036E023780720A52B32D1AB
:10EA9000A43B01932000130001AA02F0F1FA002820
:10EAA00029D13B0001AA3100200002F0E9FA002838
:10EAB00021D1019B5A1CE35C0192012B19D12B68D7
:10EAC00001AA3100200002F0DBFA002813D12B68E4
:10EAD00001AA02333100200002F0D2FA00280AD144
:10EAE000019B9E42CED0E35C002B04D12B68586082
:10EAF00001E000202860FEBDF0B585B007000C00E5
:10EB000015000193002901D10E2020E0002AFBD03E
:10EB100016680920042E1AD913009C300A00390007
:10EB200002F04AFA002812D12B680393002F03D079
:10EB3000039B00202B600AE0019B002BE4D003AB79
:10EB400032002100019803F02AFF0028F0D005B020
:10EB5000F0BD00007FB505000C001E000E20002D4A
:10EB600025D0002A23D0002B21D0089B002B1ED0BB
:10EB7000012303934B1E032B01D8092017E0130038
:10EB8000280003AA02F08DFA330003AA210028000E
:10EB900002F087FA074B03AA00932100089B280084
:10EBA00002F034FC002802D1039B9C42E5D104B062
:10EBB00070BDC046D1290200F0B587B007000D0036
:10EBC00014000293002901D10E201EE0002AFBD080
:10EBD000136805AE039300230096059313000A0003
:10EBE0000100A42002F0D7FA00280ED1002F0CD18A
:10EBF000029B002BE8D03300039A2900029803F00F
:10EC0000CEFE002801D1059B236007B0F0BD13B5EF
:10EC1000130004000E20002A14D0002C12D0032967
:10EC200001D009200EE022780720B02A0AD1AF3A9D
:10EC30000192200001AA02F023FA002802D1019BD0
:10EC4000032BEED116BD10B513000A000100B02051
:10EC500002F0B2F910BD13B5130004000E20002A13
:10EC600014D0002C12D0032901D009200EE0227804
:10EC70000720B12A0AD1B03A0192200001AA02F07D
:10EC8000FFF9002802D1019B032BEED116BD10B570
:10EC900013000A000100B12002F08EF910BDF7B593
:10ECA000040015001E000E20002C23D0002A21D0C5
:10ECB000002B1FD0002301936B46981C70233768EC
:10ECC00003803A0001AB290002F0C9F9002811D1F4
:10ECD000201D01AB3A00290002F0C1F9002809D13A
:10ECE000A01D01AB3A00290003F00DFF002801D15F
:10ECF000019B3360FEBD0000F0B585B004000E003E
:10ED00001D000A9F0E20002C2ED0002A2CD0002B94
:10ED10002AD01B68002B27D0002F25D001232000EC
:10ED20000393130003AA02F0ABF900281CD10F4B88
:10ED300003AA009331002B00200002F067FB00289B
:10ED400012D12A68039B002A06D00133E4183C60E4
:10ED50002A681288D31801E03A6001330393039BB9
:10ED600000209E4200D0093005B0F0BDD72A020035
:10ED700010B513000A000100B22002F01DF910BD09
:10ED800073B5040016001D000E20002C27D0002AA9
:10ED900025D0002B23D01B68002B20D0062901D0C2
:10EDA00009201CE02378692B01D0072017E00123FC
:10EDB00020000193130001AA02F031F900280ED1BE
:10EDC0003368012B02D0203B052BEED8019B5A1C47
:10EDD000E35C002B00D12B60062AE1D1002076BD38
:10EDE000F0B585B007000C0016000193002901D191
:10EDF0000E2063E0002AFBD0156813000A00010012
:10EE0000692002F0D9F8002858D1002F56D10A9B6A
:10EE1000002BEDD0019B012B03D0203B0730052BAD
:10EE20004CD833682A000393210003AB01A802F0F9
:10EE3000DAF8002842D1019B222B26D00BD8202BB8
:10EE400015D01BD8012B36D103AB2A0021000A981C
:10EE500003F0ACFE2DE0242B25D01DD3252B2AD189
:10EE600003AB2A0021000A9803F0FFF821E003AB6E
:10EE70002A0021000A9802F0F7FF1AE003AB2A00EB
:10EE800021000A9803F02EF813E003AB2A002100BA
:10EE90000A9803F06BF80CE003AB2A0021000A98F3
:10EEA00003F082F805E003AB2A0021000A9803F082
:10EEB000B3F8002802D10020039B336005B0F0BDF9
:10EEC00013B5130004000E20002C0ED0002A0CD025
:10EED0000538042909D922780238682A05D1673A09
:10EEE0000192200001AA02F09AF816BDF7B50400BD
:10EEF0000D0017001E000E20002C6AD0002A68D0DA
:10EF0000002B66D01B68002B63D00538052960D91B
:10EF10002378682B01D007205BE0012320000193B8
:10EF2000130001AA02F07BF8002852D13B68012BA4
:10EF300003D01A00203A052AEDD8019A511CA25C90
:10EF40000191002A01D132603EE0222B26D00BD85D
:10EF5000202B15D01BD8012B36D1336801AA2900EC
:10EF6000200003F03FFE2DE0242B25D01DD3252BC0
:10EF70002AD1336801AA2900200003F086F821E095
:10EF8000336801AA2900200002F08DFF1AE03368DF
:10EF900001AA2900200002F0C7FF13E0336801AA8C
:10EFA0002900200002F0F1FF0CE0336801AA2900DB
:10EFB000200003F015F805E0336801AA29002000BD
:10EFC00003F03AF8002804D1019B09209D4200D1AA
:10EFD0000020FEBD10B5130004000E20002906D04D
:10EFE000002A04D00A005A30210001F0E5FF10BDCC
:10EFF000F0B587B005000C0003921F000E20002D15
:10F0000025D000230B26059302ABF618330005AA82
:10F01000280002F060F8002819D133780730622BFD
:10F0200015D1039B05AA2100280002F029F8002829
:10F030000DD100903B0005AA2100280002F0E6F95E
:10F04000031E04D1059A0930944200D1180007B07C
:10F05000F0BD0000F0B585B006000D00140003936C
:10F060000E20002914D0002A12D017681300543043
:10F070000A00310001F0A0FF002809D1002E07D1BD
:10F08000044B3A00009329002300039802F0A9F9E9
:10F0900005B0F0BDBD100200F0B51F00012385B022
:10F0A00005000C0003930E20002D25D0002A23D04C
:10F0B000002F21D00A9B002B1ED01300280003AA8A
:10F0C00001F0DEFF002817D10C4E3B00009603AA8A
:10F0D0002100280002F09AF900280DD10A9B009621
:10F0E00003AA2100280002F091F9031E04D1039A1B
:10F0F0000930944200D1180005B0F0BDAF210200E4
:10F1000010B513000A000100842001F055FF10BD66
:10F110007FB51E00012305000C0003930E20002D77
:10F1200025D0002A23D0089B002B20D0002E1ED0F3
:10F130001300280003AA01F0A3FF002817D10D4BEC
:10F1400003AA009321003300280002F05FF9002891
:10F150000DD10090089B03AA2100280002F056F967
:10F16000031E04D1039A0930944200D1180004B060
:10F1700070BDC04675150200F0B587B0060003915A
:10F1800015001C000E20002A18D0002B16D03100CC
:10F1900075301F6801F010FF00280FD12368059318
:10F1A000002E0BD1064B3A000093290005AB0398C3
:10F1B00002F017F9002801D1059B236007B0F0BDCC
:10F1C0006D210200F0B587B005000C0003921E000F
:10F1D0000E20002D2DD0002A2BD0002E29D03368F0
:10F1E000002B26D000230B27059302ABFF183B0012
:10F1F00005AA280001F06FFF00281AD13B780730DC
:10F20000942B16D1039B05AA2100280001F038FF9A
:10F2100000280ED1084B05AA0093210033002800D6
:10F2200002F0F4F8031E04D1059A0930944200D18B
:10F23000180007B0F0BDC0461F23020010B5130030
:10F240000A000100942001F0B7FE10BDF0B51025B2
:10F2500087B01C0005930195009505AB03900E0047
:10F26000170001F0FCFF002809D1641901950095F1
:10F2700005AB3A0031000398059401F0F0FF07B0A8
:10F28000F0BD07B52030009313000A00102101F0F3
:10F29000A4FF0EBDF7B5040015001E000E20002CC3
:10F2A00024D0002A22D0002B20D0002301936B46CB
:10F2B000981C1623376803803A0001AB290001F03F
:10F2C000CEFE002812D1201D01AB3A00290001F02A
:10F2D000C6FE00280AD1200001AB08303A00290000
:10F2E00001F0ECFE002801D1019B3360FEBDF7B5B3
:10F2F0001F000023019302336B449C461500342306
:10F300006246040013800E20002C30D0002D2ED039
:10F31000002F2CD03E6801AB32002900604601F07E
:10F320009EFE002823D1201D01AB3200290001F0F0
:10F3300096FE00281BD1A01D01AB3200290001F070
:10F340008EFE002813D1200001AB320029000830C6
:10F3500001F085FE00280AD1200001AB0C303200FC
:10F36000290003F067F8002801D1019B3B60FEBD36
:10F370007FB51E00012305000C0003930E20002D15
:10F3800019D0002A17D0002E15D01300280003AA88
:10F3900001F076FE00280ED1084B03AA009321004D
:10F3A0003300280002F032F8031E04D1039A09301A
:10F3B000944200D1180004B070BDC046492102003B
:10F3C00010B513000A000100812001F0F5FD10BD09
:10F3D000F0B5060085B014001F000E20002E32D0BC
:10F3E000002A30D0002B2ED000233D680438039330
:10F3F0006844183303802A0003AB210001F02FFE7C
:10F40000002820D1301D03AB2A00210001F027FE87
:10F41000002818D10D4B2A000093210003ABB068DF
:10F4200001F0DFFF00280ED1337B0930DB07DB0F53
:10F43000684403702A0003AB210001F03FFE00285E
:10F4400001D1039B3B6005B0F0BDC04651150200E1
:10F4500073B51E00012305000C0001930E20002D42
:10F4600017D0002A15D0002E13D01300280001AAAF
:10F4700001F006FE00280CD1330001AA210028006B
:10F4800001F029FE031E04D1019A0930944200D1F3
:10F49000180076BD10B513000A000100822001F0AB
:10F4A0008BFD10BD1FB50C0013000E21002819D0D4
:10F4B000002A17D01268002A14D0002C01D109218B
:10F4C00010E0027807214D2A0CD14C3A0392074AEA
:10F4D0002100009203AA01F099FF011E02D1039BB3
:10F4E0009C42ECD1080004B010BDC0464DF20100B2
:10F4F000F0B587B006000D00140003930E2000291C
:10F5000020D0002A1ED00023176805933F30130037
:10F510000A00310001F050FD002813D1059B22683C
:10F520009B180593002E03D0059B0020236009E063
:10F53000054B3A000093290005AB039801F051FFF9
:10F540000028F1D007B0F0BD83F201007FB50400C0
:10F550000D001E000E20002C35D0002A33D0002BC9
:10F5600031D01B68002B2ED0032901D809202AE0B6
:10F5700023780720672B26D1663B039320001300D6
:10F5800003AA01F07DFD00281DD1039B591CE35CFB
:10F590000391012B12D1336803AA04332900200000
:10F5A00001F06EFD00280ED10090336803AA2900F7
:10F5B000200001F02BFF002801D004E03060039B05
:10F5C0009D42D3D1002004B070BD10B513000A00D5
:10F5D0000100672001F0F0FC10BDF0B587B0050018
:10F5E0000C00170003930E20002D2AD0002A28D0EB
:10F5F00000230B26059302ABF61864233370002911
:10F6000001D109201DE03300280005AA01F070FD9A
:10F6100033780B20642B14D10097039B05AA21009B
:10F62000280001F059FE00280BD100900C9B05AA80
:10F630002100280001F0EAFE002802D1059B9C422F
:10F64000DFD107B0F0BD0000F0B587B006000D00B7
:10F65000140003930E2000291AD0002A18D017682E
:10F66000130056300A00310001F0A6FC00280FD12B
:10F6700023680593002E0BD1064B3A000093290016
:10F6800005AB039801F0ADFE002801D1059B236076
:10F6900007B0F0BD132A0200F0B5040085B00D00DC
:10F6A00016001F000E20002C43D0002A41D0002B52
:10F6B0003FD00A9B002B3CD01368002B39D03A680E
:10F6C000002A36D00A9A12680192002A31D0032902
:10F6D00001D809202DE06278002A03D1022332608C
:10F6E000039311E0012A01D00B2022E00629F0D972
:10F6F00002222000039203AA01F0D3FC039B32688C
:10F70000591CE35C03919370039BE25C002A01D1D6
:10F710003A6001E0012AE7D15A1CA25C002A02D11A
:10F720000A990A6001E0012ADED10233AB42D0D14E
:10F73000002005B0F0BDF7B51E0007000D00140055
:10F740000E23002924D0002A22D01368019313002D
:10F750000A000100652001F02FFC031E18D1002FC4
:10F7600016D12368019A581C824201D209230FE066
:10F77000EE54089B002B09D0019B8719BB42F5D39F
:10F7800028183200089904F041FB3800002320605B
:10F790001800FEBD7FB51E00012305000C00039379
:10F7A0000E20002D20D0002A1ED0002E1CD0136861
:10F7B000002B19D03368002B16D00C4B2800009377
:10F7C000130003AA01F022FE00280DD1009033009F
:10F7D00003AA2100280001F019FE031E04D1039A98
:10F7E0000930944200D1180004B070BD832A020091
:10F7F000F0B587B006000D00140003930E20002919
:10F800001AD0002A18D01768130055300A003100AA
:10F8100001F0D2FB00280FD123680593002E0BD1F5
:10F82000064B3A000093290005AB039801F0D9FD7F
:10F83000002801D1059B236007B0F0BDBD10020078
:10F8400010B50E23002810D0002A0ED01468002C0A
:10F850000BD0053B022908D10178023B662904D16F
:10F860004378002B00D113600023180010BDF7B5BA
:10F8700007000D0014001E00002901D10E2025E014
:10F88000002AFBD01368019313000A0001006620D0
:10F8900001F092FB002819D1002F17D1002EEDD0D6
:10F8A000236801995A1D093091420FD33178E954E8
:10F8B0007088591C69180870000A48703800B188AF
:10F8C0000333ED182970090A69702260FEBD00003B
:10F8D0000B4A93781100002B07D097235B00D25C72
:10F8E0002B3BFF3B002A08D1033B962252005A4390
:10F8F0008A18012191700360002318007047C046E8
:10F90000D83500200A4B020018881900904206D012
:10F91000FE33DB8D0520934208D1012300E0002354
:10F920009622002052005343CB1898707047C0466F
:10F93000D835002010B50C4B1A881C00824202D129
:10F940009B78012B0BD02300FE33DB8D05228342F5
:10F9500008D197235B00E35C012B03D100E0002377
:10F9600000220B60100010BDD8350020064A04218B
:10F970009378002B05D10339917004495160190027
:10F98000036008007047C046303800203C38002033
:10F99000044B020019880520914202D10020987082
:10F9A000586070473038002010B5064B02001C88A4
:10F9B0000520944204D19B78012B01D100200860DE
:10F9C00010BDC0463038002060DF704762DF7047EE
:10F9D00063DF704764DF704765DF704766DF70473D
:10F9E00067DF704768DF704769DF7047F7B507006A
:10F9F00014001D000E20002F19D0002A17D0002B54
:10FA000015D06B46013301936B469E1C89B201AB46
:10FA100032003800FFF7ECFA002808D1019930884D
:10FA2000FFF7D4FF019B2A002100FFF713FBFEBD67
:10FA300070B5060088B014001D000E20002E19D0ED
:10FA4000002A17D0002B15D004AB02936B46073366
:10FA5000039389B203AB02AA3000FFF79BFE002894
:10FA600008D103990298FFF7B3FF039B2A002100F6
:10FA7000FFF7BEFE08B070BDF0B507008BB01500F3
:10FA80001E000E20002F1ED0002A1CD0002B1AD0E2
:10FA90000B2410236C44237006AB039304AB059333
:10FAA00005AB0093220003AB3800FFF796FD00285A
:10FAB00009D1059A03992078FFF78CFF059B320046
:10FAC0002900FFF7C1FD0BB0F0BDF0B507008DB008
:10FAD00015001E000E20002F22D0002A20D0002B5F
:10FAE0001ED00F2410236C44237008AB059306AB83
:10FAF000079305AB009389B204AB07AA38000494BE
:10FB0000FFF7CAFD00280BD1059A04990798FFF763
:10FB100063FF059A2378290000923200FFF70BFE5D
:10FB20000DB0F0BD7FB5060014001D000E20002EA4
:10FB300014D0002A12D0002B10D002AB89B201AA37
:10FB400030000193FFF77CFE002807D10198FFF7F2
:10FB500045FF019B2A002100FFF789FE04B070BD1C
:10FB600070B5060086B014001D000E20002E18D0BF
:10FB7000002A16D0002B14D004AB039389B203AB38
:10FB800002AA3000FFF7FCF800280AD10399029876
:10FB9000FFF72AFF039B2A0000932100029BFFF737
:10FBA0001FF906B070BDF0B505008DB00C00160051
:10FBB0001F000E20002D35D0002A33D0002B31D06D
:10FBC000012310225B42002108A8A4B2029304F092
:10FBD0005BF902AA21002800FFF772F9002821D161
:10FBE000029A06AB0393222A07D0232A08D0212A9F
:10FBF00008D16A4606325A6004E004AB069301E07D
:10FC000008AA1A6003AB02AA21002800FFF76EF9C8
:10FC1000002807D103990298FFF7E4FE3A0031006B
:10FC2000FFF7D8F90DB0F0BD70B5060088B014002C
:10FC30001D000E20002E17D0002A15D0002B13D047
:10FC40000A4B02AA0193019B3000009303AB02937D
:10FC5000FCF758FB002807D169460298FFF7B4FE6D
:10FC60002A002100FCF76EFB08B070BD00280020C0
:10FC7000F0B5070087B015001E000E20002F2AD017
:10FC8000002A28D0002B26D004AB02936B469C1D83
:10FC9000220002AB3800FFF759FC00281BD1029B61
:10FCA000002B10D003A8FFF761FE002813D14C23CE
:10FCB00003990A4A4B43218899520299D31889889B
:10FCC00004339980029302992088FFF789FE32005D
:10FCD0002900FFF77AFC07B0F0BDC046303800209D
:10FCE00070DF704771DF704772DF704773DF7047F6
:10FCF00074DF704775DF704776DF704777DF7047D6
:10FD000078DF704779DF70477ADF70477BDF7047B5
:10FD10007CDF70477DDF70477EDF70477FDF704795
:10FD200080DF704781DF704782DF704783DF704775
:10FD300084DF704785DF704786DF704787DF704755
:10FD400088DF704789DF70478ADF70478BDF704735
:10FD50008CDF70478DDF7047F0B5070085B0140069
:10FD60001D000E20002F16D0002A14D0002B12D018
:10FD700002AB01936B46DE1C320001AB3800FCF78E
:10FD8000A7FC002807D101993078FFF7A9FF2A00C6
:10FD90002100FCF7C7FC05B0F0BDF0B5D3B00600FC
:10FDA000039114001D000E20002E39D0002A37D0F8
:10FDB000002B35D008AB073805938446002314AADE
:10FDC0006046584324A99F0008180133B850082BF7
:10FDD000F6D100239F0032A91CA8CF191F5004336D
:10FDE000202BF7D108270CAB1F711F7311930AAB9F
:10FDF0000C92079310AA07AB0E900692009305AAE7
:10FE000006AB03993000FCF7E5FE002808D1079AFD
:10FE100006990598FFF79CFF2A002100FCF71EFFBA
:10FE200053B0F0BD70B5010014001D000E20002974
:10FE300009D0002A07D0002B05D0FFF78BFF2A003E
:10FE40002100FCF713FF70BDF0B5CBB006000191A7
:10FE500014001D000E20002E30D0002A2ED0002BC2
:10FE60002CD00738002384460CAA604658431CA9AE
:10FE70009F0008180133B850082BF6D100239F00CB
:10FE80002AA914A8CF191F500433202BF7D1082713
:10FE9000049208AA04AB06900392019903AA3000C9
:10FEA0001F711F730993FDF7C5FB002806D1039846
:10FEB000FFF74AFF2A002100FDF7DCFB4BB0F0BD45
:10FEC0007FB5060014001D000E20002E14D0002A5D
:10FED00012D0002B10D002AB89B201AA30000193DE
:10FEE000FCF7B2FB002807D10198FFF7FBFE019B4E
:10FEF0002A002100FCF7BFFB04B070BD8446F0B5BA
:10FF00001F00634697B016000E20002B22D0002A57
:10FF100020D0002F1ED006AB04000F2504931F2312
:10FF20006C446D4423702B700EAA05AB05920093B0
:10FF30000195230004AA6046FCF701FC002809D1C2
:10FF40002178059A2B780498FFF7CEFE3A0031000D
:10FF5000FCF71BFC17B0F0BDF0B5CFB00600019167
:10FF600014001D000E20002E2FD0002A2DD0002BB3
:10FF70002BD007220023944610A862465A4320A99A
:10FF80009F008A1801333A50082BF6D100239A00BB
:10FF90002EA918AF8A18DA510433202BF7D106AAFC
:10FFA000069004A80AAB0B900D92019903AA3000A9
:10FFB00008970393FCF7F2FB002806D10398FFF79C
:10FFC00095FE2A002100FCF771FC4FB0F0BD70B522
:10FFD000010014001D000E20002909D0002A07D0BE
:10FFE000002B05D0FFF784FE2A002100FCF766FCF9
:10FFF00070BDF0B5070085B014001D000E20002F65
:020000022000DC
:1000000016D0002A14D0002B12D002AB01936B46FD
:100010009E1C320001AB3800FCF72AFD002807D1F6
:1000200001993088FFF766FE2A002100FCF76DFD7C
:1000300005B0F0BD8446F7B51D00634614000E20E0
:10004000002B15D0002A13D0002D11D06B469E1D19
:100050005F1D3B0032006046FCF79CFE002807D184
:1000600039783088FFF748FE2A002100FCF7C5FEEA
:10007000FEBDF7B5070014001D000E20002F13D0A1
:10008000002A11D0002B0FD06B46DE1D3200380045
:10009000FDF7CEFB002807D100203056FFF72EFEDB
:1000A0002A002100FDF7DBFBFEBDF7B507001400B9
:1000B0001D000E20002F12D0002A10D0002B0ED0D1
:1000C0006B469E1D32003800FCF73EFC002806D12E
:1000D0003088FFF715FE2A002100FCF74BFCFEBD1F
:1000E00073B5060014001D000E20002E15D0002A46
:1000F00013D0002B11D06B4689B2023301AA300015
:100100000193FCF7E3FB002807D10198FFF7FAFD04
:10011000019B2A002100FCF7F0FB76BD7FB50600AD
:1001200014001D000E20002E12D0002A10D0002B2B
:100130000ED002AB01AA30000193FDF7DDF90028D3
:1001400006D10198FFF7E0FD2A002100FDF715FA1E
:1001500004B070BD7FB5060014001D000E20002EF7
:1001600014D0002A12D0002B10D002AB89B201AA01
:1001700030000193FDF76CF9002807D10198FFF7D3
:10018000C5FD019B2A002100FDF77CF904B070BD7C
:10019000F0B507008FB014001D000E20002F19D0FD
:1001A000002A17D0002B15D0060006AB04936E442E
:1001B00005AB04AA38000596FCF760FD002809D1BC
:1001C00005990498FFF7A6FD32882300009504994D
:1001D000FCF782FD0FB0F0BDF0B507008FB0150041
:1001E0001E000E20002F1CD0002A1AD0002B18D081
:1001F00003AB0400049306AB05931F236C442380D8
:1002000004AA009405AB3800FCF78CFD002808D147
:10021000228805990498FFF77BFD32002900FCF73E
:10022000B1FD0FB0F0BDF0B5070085B014001D00A2
:100230000E20002F16D0002A14D0002B12D002ABB3
:1002400001936B469E1C320001AB3800FCF7DEFBCD
:10025000002807D101993088FFF75EFD2A002100B0
:10026000FCF7FEFB05B0F0BDF0B58BB007000391C5
:1002700002921E000E20002F47D0002A45D0002EEB
:1002800043D0002305A8059308AB0693FFF720FB96
:1002900000283AD19624059B64005C431C4D02A9BA
:1002A0006219131D07931300243353602300403356
:1002B0005B19936013005733D360130067331361E6
:1002C0002300A8335B1953611300C43393611300F7
:1002D000DB33D3611300EB33136207AB019306AB3F
:1002E00000930B2338005B180399FDF72DFA0028C3
:1002F0000BD102ABD97A069A079B605BFFF70EFD24
:10030000079B32000299FDF769FA0BB0F0BDC046B9
:10031000D83500208446F0B51D00634689B014002E
:100320000E20002B1CD0002A1AD0002D18D009272F
:100330000A2604AB03936F4403AB6E44009389B267
:100340003B0032006046FCF71DFB002808D13978DD
:10035000039A3088FFF7E4FC2A002100FCF74EFBEB
:1003600009B0F0BDF0B5070095B014001D000E20D7
:10037000002F21D0002A1FD0002B1DD006000FAB6C
:10038000049307AB05930BAB069306AB6E44019346
:1003900005AB009389B204AB32003800FDF77AF95F
:1003A000002809D1059A04993088069BFFF7C4FC00
:1003B0002A002100FDF7C0F915B0F0BDF7B5070020
:1003C00014001D000E20002F16D0002A14D0002B80
:1003D00012D06B469E1C0193320001AB3800FCF733
:1003E0009CFB002808D101993088FFF7A7FC2B005F
:1003F00022000199FCF7C8FBFEBD8446F0B51D0044
:10040000634685B014000E20002B19D0002A17D0A7
:10041000002D15D00D27020003AE6F440097330066
:100420006A446046FDF7B1F8002809D16B463A7876
:100430003178D889FFF784FC2A002100FDF7D2F833
:1004400005B0F0BDF7B5070014001D000E20002F09
:1004500012D0002A10D0002B0ED06B469E1D320009
:100460003800FDF7C7F8002806D13088FFF76AFC8E
:100470002A002100FDF7D5F8FEBD70B5010014007B
:100480001D000E20002909D0002A07D0002B05D01E
:10049000FFF75CFC2A002100FDF7F4F870BDF0B511
:1004A00007008FB014001D000E20002F1CD0002A62
:1004B0001AD0002B18D0060006AB049309AB0593A5
:1004C0006E4405AB009389B204AB32003800FCF7F0
:1004D0009DFC002808D1059A04993088FFF72AFC72
:1004E0002A002100FCF7CAFC0FB0F0BD8446F7B526
:1004F0001D00634614000E20002B15D0002A13D0D7
:10050000002D11D06B469E1D5F1D3B0032006046E2
:10051000FEF79EFF002807D139783088FFF704FCEA
:100520002A002100FEF7B6FFFEBDF0B507008BB034
:1005300014001D000E20002F16D0002A14D0002B0E
:1005400012D002AB01936B469E1C320001AB380007
:10055000FEF70EFF002807D101993088FFF7E2FB74
:100560002A002100FEF72CFF0BB0F0BDF0B507000C
:100570009BB014001D000E20002F1BD0002A19D0A4
:10058000002B17D0060006AB049310AB05936E4406
:1005900005AB0093320004AB3800FEF77DFD002868
:1005A00008D1059A04993088FFF7C2FB2A00210080
:1005B000FEF7A6FD1BB0F0BDF0B50700A1B014001A
:1005C0001D000E20002F1CD0002A1AD0002B18D09E
:1005D000060006AB049310AB05936E4404AB009386
:1005E000320005AB3800FEF793FD002809D1049ACC
:1005F00005993088FFF79AFB2B0022000499FEF73B
:10060000BBFD21B0F0BD90DF704791DF704792DFF6
:10061000704793DF704795DF704796DF704797DF2D
:10062000704798DF704799DF704794DF70478446C2
:10063000F0B51D00634687B014000E20002B1BD0C0
:10064000002A19D0002D17D0070004AB05936F4482
:1006500005AB03AE009389B23B0032006046FDF764
:10066000B9FC002808D13988059A3088FFF7CBFFFC
:100670002A002100FDF7F2FC07B0F0BDF0B507003D
:1006800085B014001D000E20002F17D0002A15D0B1
:10069000002B13D002AB03936B469E1D89B203ABB4
:1006A00032003800FDF717FD002807D10399308884
:1006B000FFF7ABFF2A002100FDF748FD05B0F0BDB4
:1006C000F0B5070085B014001D000E20002F17D0D4
:1006D000002A15D0002B13D002AB03936B469E1D4E
:1006E00089B203AB32003800FDF745F9002807D185
:1006F00003993088FFF78BFF2A002100FDF776F978
:1007000005B0F0BDF0B5070085B014001D000E2047
:10071000002F17D0002A15D0002B13D002AB039363
:100720006B469E1D89B203AB32003800FDF766F9B7
:10073000002807D103993088FFF76BFF2A002100BA
:10074000FDF797F905B0F0BDF0B5070089B01400CA
:100750001D000E20002F1ED0002A1CD0002B1AD006
:1007600000230600049304AB059306AB07936E4485
:1007700007AB009389B205AB32003800FDF778F87B
:10078000002808D1079A05993088FFF744FF2A000E
:100790002100FDF7AFF809B0F0BD8446F0B51D00AB
:1007A000634685B014000E20002B1AD0002A18D002
:1007B000002D16D007000A2203AE6F4489B20097BD
:1007C00033006A446046FDF751FC002809D16B46AE
:1007D0003A8831885889FFF720FF2A002100FDF769
:1007E00072FC05B0F0BD8446F0B51E0063468BB0C8
:1007F00015000E20002B1CD0002A1AD0002E18D075
:1008000004AB0A2403930B236C4402AF238089B208
:10081000009403AB3A006046FDF774F8002808D155
:10082000228803993888FFF7FAFE32002900FDF785
:1008300095F80BB0F0BDF0B58DB007000191150033
:100840001E000E20002F21D0002A1FD0002B1DD00B
:1008500004AC0C220021200003F016FB1423E380DB
:1008600007ABA36002AB03949C1C6B4622009988E3
:10087000380003ABFDF772FC002807D103992088EC
:10088000FFF7CFFE32002900FDF7A4FC0DB0F0BD4C
:100890008446F7B51D00634614000E20002B15D0CA
:1008A000002A13D0002D11D06B4601AE9F1D3B00D6
:1008B00032006046FDF764FB002807D13988308894
:1008C000FFF7B1FE2A002100FDF77CFBFEBDF0B56D
:1008D000070085B014001D000E20002F19D0002A3B
:1008E00017D0002B15D00023029302AB03936B4665
:1008F0009E1D89B203AB32003800FEF763FC00286E
:1009000007D103993088FFF790FE2A002100FEF7F7
:1009100095FC05B0F0BDA0DF7047A1DF7047A2DFF6
:100920007047A3DF7047A4DF7047A5DF7047A6DFDD
:100930007047A7DF7047A8DF7047A9DF7047AADFBD
:100940007047F0B5070087B014001D000E20002F7F
:100950001FD0002A1DD0002B1BD00023039303AB14
:1009600004930A2309266B4405936E4405AB009358
:10097000320004AB3800FDF7F1FE002809D1059ADA
:1009800004993078FFF7C7FF059B2A002100FDF787
:1009900023FF07B0F0BD0000F0B5234C0700A544CD
:1009A0001D0014000E20002F3BD0002A39D0002B50
:1009B00037D080236A4650309B00121813801CAA3F
:1009C00016920CAA189204AA199205AA1A9206AABB
:1009D0001B9215AA089209AA109207AA11926A46B8
:1009E0000E261638121813809CAB149310AB0A9382
:1009F0000EAB0B930BAB6E4401930AAB009332002A
:100A000008AB3800FDF7EEFB00280AD10B9B0A9AD1
:100A100008993088FFF783FF0B9B2A002100FDF720
:100A20002FFC024B9D44F0BD8CFBFFFF74040000C3
:100A30008446F0B51D00634687B014000E20002BDD
:100A40001DD0002A1BD0002D19D0122306006B44A4
:100A5000059304AF05AB6E44009389B23B003200AE
:100A60006046FDF7F5FD002809D13988059A3088E0
:100A7000FFF753FF059B2A002100FDF716FE07B084
:100A8000F0BD0000F0B51A4C0700A5441D0014008D
:100A90000E20002F28D0002A26D0002B24D007AB10
:100AA000059304AB079303AB08930CAB0B93802324
:100AB0006A469B009384F73BFF3B6B44069302AE70
:100AC00006AB0093320005AB3800FDF7FFFB0028B2
