:10000000883A0020650100006101000061010000E4
:1000100000000000000000000000000000000000E0
:1000200000000000000000000000000021010000AE
:1000300000000000000000006101000061010000FC
:100040006101000061010000610100006101000028
:10005000610100000000000061010000610100007A
:100060006101000061010000610100006101000008
:1000700061010000610100006101000061010000F8
:1000800061010000110D000061010000610100002C
:1000900061010000610100006101000061010000D8
:1000A000610100006101000000000000000000008C
:1000B0000000000000000000000000000000000040
:1000C00010B5064C2378002B07D1054B002B02D02E
:1000D000044800E000BF0123237010BDA8050020E4
:1000E000000000003423000008B5084B002B03D0AB
:1000F0000748084900E000BF07480368002B00D10B
:1001000008BD064B002BFBD09847F9E70000000024
:1001100034230000AC050020342300000000000060
:100120000448864501D104490847EFF3098000904F
:1001300000490847F9FFFFFFFDFFFFFF80F3098833
:10014000F0B444464D4656465F46F0B48946FFDF5C
:10015000F0BCA046A946B246BB46F0BC70470000C2
:10016000FEE7C046032208B5124B13491A60134A32
:10017000134B14481A608022134B12021A608142FA
:1001800009D0124B984206D2C243D21892080132CB
:10019000920001F003FB0E480E4B984207D2C24377
:1001A000D218920801329200002101F035FB00F0D4
:1001B00013F808BD2405004034230000DFFF07C00A
:1001C0000405004000000020186C0040A805002035
:1001D000A8050020882A0020F0B503AF91B0BF49E0
:1001E0000846D830BE4A0B46E43309C2BD48022354
:1001F00000250195083A2CC005604560E0228D502D
:10020000DC23CD500C38C850B74B8B50EC228D50AE
:10021000E8240D5108518B50B4490D604D608D603C
:10022000B34BCB601960B34A5A60B34A01261660DB
:10023000B24B19605D611D61B14A156055609360F4
:10024000D56015610C68DC600B605D601D721A6121
:10025000AC495961AC490B685C1C0C60AB490CC1E2
:100260000839D160AA4B1361AA4CAB4A64232CC451
:100270002560AA4A03C20C3C00F0AEFD00E062B665
:100280002068002800D11AE1A168E268914227D0D5
:100290006268914200D318E12546002A00D117E197
:1002A00040180478481C114601F06EF9A960112C21
:1002B0000AD18F4800680028019909D08C49496803
:1002C000C9688847019903E06109072900D102E163
:1002D0001F2004403046A040C9B28900924A88508D
:1002E000934CA06A002800D10446002800D1D4E035
:1002F0001094002002900F9000E0109C24200790A2
:10030000205C012848D1216B606B814200D1C4E0A0
:10031000E26A914200D3CCE03546002A00D1CBE01E
:10032000A06A14234B43C0180368039343680493E3
:1003300083680593C36806930669481C114601F05B
:1003400023F9216300201099079A8854109C216A90
:10035000A0690322D24381502E430721C94346504E
:100360002E46E16931430B22D24381501F21C943FC
:10037000039A42501B21C943049A42501721C94392
:10038000059A42501321C943069A42502038A06171
:100390002168884205D2FEDE2168A069884200D229
:1003A000FEDEFFF7CBFEA061F04310998A699369E6
:1003B0001B5ADBB2042BA0D89B0002A41B191B689C
:1003C0009F46C04685040000D903000003040000D6
:1003D0001504000031040000106852680E928A690A
:1003E00092680D928969C9680C910FA908910CA9AE
:1003F00009910DA90A910EA90B9108A900F0A0F886
:100400003BE0106810A908910FA9099108A900F014
:10041000F5F832E0106810A908910FA9099108A910
:1004200000F094FA109880690021C943016064E7E4
:1004300013685268002B0ED10298C0430B68934298
:100440001BD84C681B19934217D9CB68934214D31D
:100450008A60029811E0012B0FD18B689A180298DC
:10046000C0430C68944208D84D686419944204D97A
:10047000CC68944201D38A60184610998969086053
:10048000109C3BE70120079A8854109881698A697B
:10049000C261CA6902622031816172B61D4C206856
:1004A00000280FD0A068E168884200D0E7E630BF9E
:1004B000E5E6204800F0DCFD1F4800F0F9FD1F488C
:1004C00000F0F6FD1D4800F0F3FD154800F0D0FDEA
:1004D000164800F0EDFD134800F0EAFD0000002092
:1004E000C8050020C8090020F41A0000C80D00202B
:1004F00040220020041B000008150140C811002004
:10050000C8150020141B000048220020C819002034
:10051000241B000030220020C8210020C81D00201C
:10052000C41B0000FC1D000000E100E0D01B000027
:100530004C220020181A00005C1A0000101E000057
:10054000F0B503AF81B002460026F0430D684B685A
:100550008C68032A31D10022D04325494E68002EF1
:1005600036D0296800293ED1234DA96A00292FD011
:1005700021681B6811CD00197468E443A4000619B2
:100580003468083D002C13D100910020C043A968B5
:10059000EC68183C8C421BD3EC60002C009917D0FF
:1005A000002020606060A060E060206160613460D5
:1005B000E2602361616110460AE0012A08D1F0433C
:1005C0000B4A1268002A03D0C9680968002901D0C3
:1005D00001B0F0BD206819682B689360D16010618C
:1005E000304601B0F0BD0348012200F041FDC04695
:1005F000C81D0020E81A00004C220020F0B503AF0F
:1006000085B00022D4430B68032872D10026F04342
:10061000B74A5568002D00D1A1E049681A6892696F
:100620005368039392680968002900D057E10121BB
:100630000491CC43B04B996A002900D190E002921A
:1006400006CB89186A68D24392008A181168083B61
:10065000002913D1009699680191D9681839019E33
:10066000B1427DD3D9600029009E79D000230B6070
:100670004B608B60CB600B614B611160039A022A67
:1006800071D0012A00D08CE0A04803900068086077
:10069000029A4A60049C0C727D21C8015043C90033
:1006A00000F072FF29680C604860039A12688C6839
:1006B00021684B685D1C4D601518002B14D1206813
:1006C00092490968816092480560049A1004914932
:1006D000086091490860500490490860904908609A
:1006E0009048026000F064FB049820726560344614
:1006F00036E0012834D17E480568002D30D01868D6
:10070000806946688068082E2AD80ACDB50002A6FE
:10071000AD192D68AF46C0463D0700001308000024
:100720002F0800004F0800006F0800008908000033
:1007300095080000AF080000BB0800000022D44369
:1007400083420DD98000081800680178202900D361
:10075000C9E088007B4903234350144600E0044667
:10076000204605B0F0BD00240C604C60286880680D
:10077000017A0029F4D00024047200684168491EFF
:1007800041600029049AEBD150045C4908601004D0
:100790005B4908605B4908605B48026000F008FB49
:1007A000DEE7002A0446DBD1584802680A60029A54
:1007B0004A6000240C7229680C604C600068039049
:1007C0008D6828684668711C41607D21C8015043CE
:1007D000C90000F0D9FE03990A18002E049E15D115
:1007E00028684A49096881604948026030044949DB
:1007F0000860494908607004484908604849086031
:1008000048480660039200F0D3FA039A2E726A6099
:10081000A6E70022D4438342A2D9800008180068CA
:1008200000781F2101400120884045490CE000224A
:10083000D443834294D980000818006800781F21AF
:100840000140012088403D490860144688E7834202
:1008500086D980000818006800781F210140012017
:10086000884035490B6843400B60144678E7C1B2B5
:10087000994200D374E7000AC0B2022801D00128CF
:1008800021D12B4800F014FC834200D868E72948A6
:1008900000F00EFCC1B2994200D361E7000AC0B279
:1008A000022801D0012814D1214800F001FC834224
:1008B00000D855E71D4800F0FBFB834200D84FE706
:1008C000194800F0F5FB002800D049E7184800F06F
:1008D000EFFB002800D043E7154800F0E9FB05488E
:1008E000012200F0C5FB1848202200F0C1FBC046E1
:1008F000C81D0020E81A00004C22002080E100E022
:100900004813014008130140041001400415014040
:1009100040150140441301400413014080E200E00F
:1009200000E100E000100140041C00002C1C00004D
:10093000F01B0000181C0000040500500C050050BE
:100940000805005000070050E41B0000B0B502AFDE
:100950000A684968032802D10E48406803E001286C
:1009600013D10C48006800280FD012689069836882
:10097000C56814689C4208D85B19526812199342E2
:1009800003D809684068022900D2B0BD024801229C
:1009900000F06EFBC81D0020A01A0000F0B503AFE8
:1009A00083B0D820204D295C202939D289001F4BE3
:1009B0000324CC50E4210291695C2B4620292FD2DC
:1009C00089001A4D4C510021009110E01D5C1F263A
:1009D0003540019101210C46AC40184D2C60029A23
:1009E0009C5C3440A1402960019900BF491C104D16
:1009F000104EB142EADD195C1F2421400126024657
:100A0000304688400C4908600298185C20408640B7
:100A100010460E6000BF6D1E002DECD10099E6E778
:100A20000748202200F024FB0000002000070050AF
:100A3000A08601009F8601000C05005008050050AB
:100A4000E41B000080B500AF42688A4202D9044826
:100A500000F02EFB014800F00BFBC046781B0000A5
:100A6000181C0000F0B503AF85B0044601220492C3
:100A700050043049086010042F4908602F4908606D
:100A80002F48026000F094F92E4806682568002D72
:100A90004CD00021C8430390029129464A68901B1C
:100AA000A368D31A0A7ACD68984210D8002A0ED0CB
:100AB000002008726068401E60600869002802D04B
:100AC0004969C9688847002D2946E7D116E0002307
:100AD0000193039B9842049B00D3019B0193002A3E
:100AE000049B00D11346019A1340002B00D10299B8
:100AF000002B00D10398002DCDD100E00299A66013
:100B0000002911D0486810490860012001040F4AEB
:100B100011600F4A116041040E4A11600E4A1160C3
:100B20000E49086000F044F905B0F0BDA66005B0BC
:100B3000F0BDC04680E100E04813014008130140C9
:100B400004100140041501404015014044130140C8
:100B50000413014080E200E000E100E000100140E9
:100B6000F0B503AF81B00546254804682868012820
:100B700023D16868AE6831684A68531C4B600094A2
:100B80000419002A14D130681D4909688160214880
:100B9000046001200104204A1160204A11604104D0
:100BA0001F4A11601F4A11601F49086000F000F9D8
:100BB000012030727460009C18E0A868017A002956
:100BC00014D00021017200684168491E416000296B
:100BD0000CD1012041040B4A116001040A4A116042
:100BE0000A4A11600A49086000F0E2F8E868002843
:100BF00003D02969CA682146904701B0F0BDC046BC
:100C00000415014080E100E0481301400813014051
:100C100004100140401501404413014004130140F9
:100C200080E200E000E100E000100140F0B503AF19
:100C300089B00B464068C243304C002526460895D3
:100C4000383E304684424FD0016E38300029F9D00A
:100C500008994D1C06463836002845D00168406882
:100C60000818910040180028E9D00792006806C8CB
:100C7000591A083891422ED34269002A2BD0C168F4
:100C8000002928D1A16A0691002924D00292059357
:100C900000690190206B0490E16A002926D0606B06
:100CA0000390401C009100F06FFC04988142059B6A
:100CB00011D0009A039890421BD21420039A5043FB
:100CC000069A10180022036042608260019AC26096
:100CD000029A0261616308980028079AAFD00A4817
:100CE0000122089900F0C4F909B0F0BD054800F0F0
:100CF000DFF90348039900F0BBF9C0464C220020FD
:100D0000381D0000241D0000341B00007047000047
:100D1000F0B503AF81B01B48002101601A480160A3
:100D20001A4801601A4801601A4801601A480160B7
:100D3000012040041949086019480168002915D0AC
:100D4000009186684468002C13D0C568681C214651
:100D500000F01AFCB14207D0A5420DD2009840190C
:100D6000112202700E48C16001B0F0BD0F4800F0C2
:100D70009FF90D4800F09CF90A482946224600F0E8
:100D800077F9C0464011014044110140481101402B
:100D90004C110140001101400411014080E100E0CC
:100DA00030220020541C0000401C0000101E0000D7
:100DB0002F2000BF00BF00BF00BF00BF00BF00BFAB
:100DC00000BF00BF00BF00BF00BF00BF00BF0138B1
:100DD0000028EED170470000F0B503AF93B08F4C00
:100DE0008F4D264632463046296816463836002949
:100DF00009D1382100F0C4FC20463830B0423246D8
:100E00003046F1D104E169180791864B1968012930
:100E100010D9089209900FA80022827002800692D1
:100E20000E920C9203920B92134604921146059275
:100E30001046C6E008920990481C1860002900D0AE
:100E4000E8E001200E90C102069178480068800019
:100E5000091A774B5C1821180194002C0BD08C4296
:100E600009D04042019900220A601918714A891874
:100E7000001D0028F7D1E9692A6A5818511AEA6852
:100E800005920A946C680C9400F07AFC29192431BC
:100E90000D91E8682A6943180A98F0380A90A0086A
:100EA0000B90002A624906D018780870521E491C1F
:100EB0005B1C002AF8D104956869A96988420E9CD8
:100EC00012D00A1A5A490B18186859494118E407F0
:100ED00044400D9D6419002800DA21461960121F54
:100EE0001B1D002A0E9CEFD10B9800280C9D21D0D1
:100EF0000320C0430540049824300B9000235A1C63
:100F0000234213D198000B990818006848490B1820
:100F100020461C6861180C91C10761400D980918A2
:100F20000C98002C00DA084618600E9C2D1F002D2E
:100F30001346E4D104988168026A00200C90109056
:100F4000D017400F10180723DB431840101A25460E
:100F50000824201AC417640F04191C40001B2B46D8
:100F60008018334A10185A0282180292109A03927B
:100F7000012A14D00A9A1060EB20C043019C0D4650
:100F800002992150E720C0432250E320C0430022B1
:100F900022500D982818DF21C94360500C9312A8E5
:100FA00081780FAA91700178407800020843108080
:100FB000180604900A200B901D4A184C0A9B0D98A5
:100FC0000299099D2A60069A6A60A960EB6028610F
:100FD00005986861A9610020E861049828622420CE
:100FE0000E99295425200F9929540FA8807827227B
:100FF000A854080A26216854AB620B98E86203984B
:1010000028630C98686308988442079D00D0E9E63D
:1010100013B0F0BD0448012200F02AF84C22002051
:10102000782000002C220020441D000048220020CF
:101030008822002004080000FEDEFEDEF0B503AFCB
:1010400089B002680692456882680792C268089271
:10105000066944690CC90968684606604460826094
:10106000C360016106982946079A089BFFF796FC22
:1010700080B500AF8CB003460B910A920A480190EC
:101080000AA9009103900BA802900848049002203E
:10109000059000210791069169460891099004A8DE
:1010A0001946FFF7CBFFC046E5100000EC1E00001C
:1010B000D0B502AF8CB01EC800680592049104A997
:1010C000069101210791002109910891044A0A9291
:1010D0000B9101940093029006A86946FFF7AEFFBA
:1010E000FC1E0000F0B503AF93B00891056814240E
:1010F000DD48854229D9DE4E0B94DC49284600F0B4
:1011000043FA0A9064220846114600F03DFA0CAA00
:1011100012194000301843780224E4431355007834
:101120000323DB43D0544800341861780023DB43A9
:10113000D1540A9823780B9C0121C9435354241F8E
:10114000CC498D420546D7D800E0284663280CDDFF
:10115000642100F009FBA41E0CAA13194900C44A1B
:1011600051184A785A7009781970089D092805DCC9
:10117000661E0CA989193030087009E0A61E0CA95A
:1011800089194200BA4B9A1853784B7012780A703A
:1011900014218B1B15218A1B296801240A940846F7
:1011A0002040079000281C4600D014460CAA96192F
:1011B000C807C0172B220240059204220B92084652
:1011C000104080080690E868012812D12A69A242DE
:1011D0000FD90820014236D1101B0290287A012134
:1011E000032800D001460020002963D10021099185
:1011F00072E003960493EC692D6A079801280DD1DB
:101200000020129012A905980870EB68012620466C
:1012100032469847FF21084200D022E10C3506985B
:10122000002809D02B689449002220469847FF21C6
:1012300008420A9E00D014E12B6820460399049AC4
:10124000984706460DE101920396049330200290E0
:101250006860E8690B90286A0990079801280ED108
:101260000020129012A9059808700998C3680126F9
:101270000B9832469847FF21084200D0F1E00698CB
:1012800000280AD00998C3687B4900220B98984728
:10129000FF2108420A9E00D0E3E00198061B08984F
:1012A000007A0121032800D001460020002907D13F
:1012B0000024ABE0022909D00299099102900BE0C9
:1012C000022900D19FE0344606469FE002994A0871
:1012D0000992491C49080291119068687F2807D833
:1012E0002C460396049311A9087001200B9040E04E
:1012F000C10A002911D12C460396049381091F22AB
:101300000A40C021114311AA11703F2101408020E1
:101310000843507002200B902BE00493010C2C46E4
:10132000002913D10396010B0F220A40E02111433B
:1013300011AA117081093F2319408025294351705A
:1013400018402843907003200B9012E00396810C04
:10135000F0220A4311A90A70020B3F231A4080258C
:101360002A434A7082091A402A438A701840284347
:10137000C87000200190C5432046C469006A0A90E5
:101380006D1C0998854209D20A98C36811A92046A4
:101390000B9A9847FF210842F2D032E007980128C3
:1013A0000CD10020129012A9059808700A98C36801
:1013B000012220469847FF21084222D106980028A2
:1013C00008D00A98C3682C49002220469847FF217C
:1013D000084216D10A98C36820460399049A984790
:1013E0000199CE43FF2505E00A98C36811A920465C
:1013F0000B9A9847284204D1761C02988642F3D370
:101400002CE001262DE07408711C4E08129012A9E0
:10141000029A0A70C5436D1CA54209D20998C36897
:1014200012A901220B989847FF210842F3D017E038
:101430000998C3680B980399049A98470021019171
:10144000CC43FF2505E00998C36812A901220B9837
:101450009847284204D1641CB442F4D3019E00E0B2
:101460000126304613B0F0BD0F2700001027000002
:10147000241E0000FFE0F505EC1E000000224308DA
:101480008B4274D303098B425FD3030A8B4244D34C
:10149000030B8B4228D3030C8B420DD3FF2209028E
:1014A00012BA030C8B4202D31212090265D0030B4D
:1014B0008B4219D300E0090AC30B8B4201D3CB0343
:1014C000C01A5241830B8B4201D38B03C01A524185
:1014D000430B8B4201D34B03C01A5241030B8B4287
:1014E00001D30B03C01A5241C30A8B4201D3CB0272
:1014F000C01A5241830A8B4201D38B02C01A524157
:10150000430A8B4201D34B02C01A5241030A8B4259
:1015100001D30B02C01A5241CDD2C3098B4201D371
:10152000CB01C01A524183098B4201D38B01C01AEF
:10153000524143098B4201D34B01C01A5241030966
:101540008B4201D30B01C01A5241C3088B4201D315
:10155000CB00C01A524183088B4201D38B00C01AC2
:10156000524143088B4201D34B00C01A5241411AE9
:1015700000D20146524110467047FFE701B50020F6
:1015800000F0FCF802BDC0460029F7D003B5FFF714
:1015900075FF0EBC4243891A1847C04603460B43E9
:1015A0007FD4002243088B4274D303098B425FD35C
:1015B000030A8B4244D3030B8B4228D3030C8B4288
:1015C0000DD3FF22090212BA030C8B4202D312126E
:1015D000090265D0030B8B4219D300E0090AC30B43
:1015E0008B4201D3CB03C01A5241830B8B4201D3F0
:1015F0008B03C01A5241430B8B4201D34B03C01AD9
:101600005241030B8B4201D30B03C01A5241C30A50
:101610008B4201D3CB02C01A5241830A8B4201D3C1
:101620008B02C01A5241430A8B4201D34B02C01AAB
:101630005241030A8B4201D30B02C01A5241CDD250
:10164000C3098B4201D3CB01C01A524183098B429B
:1016500001D38B01C01A524143098B4201D34B0184
:10166000C01A524103098B4201D30B01C01A5241E7
:10167000C3088B4201D3CB00C01A524183088B426E
:1016800001D38B00C01A524143088B4201D34B0057
:10169000C01A5241411A00D20146524110467047C9
:1016A0005DE0CA0F00D04942031000D340425340CE
:1016B00000229C4603098B422DD3030A8B4212D38E
:1016C000FC22890112BA030A8B420CD389019211C0
:1016D0008B4208D3890192118B4204D389013AD0FD
:1016E000921100E08909C3098B4201D3CB01C01AD2
:1016F000524183098B4201D38B01C01A52414309E5
:101700008B4201D34B01C01A524103098B4201D3D2
:101710000B01C01A5241C3088B4201D3CB00C01A3F
:10172000524183088B4201D38B00C01A5241D9D257
:1017300043088B4201D34B00C01A5241411A00D2D8
:101740000146634652415B10104601D34042002BD4
:1017500000D54942704763465B1000D3404201B553
:10176000002000F00BF802BD0029F8D003B5FFF708
:1017700015FF0EBC4243891A1847C0467047C04641
:1017800008B5002200F002F808BDC04608B50B1CE1
:10179000111C1A1C00F040F808BDC04670B50F2A95
:1017A00032D9041C0C430B1CA40731D1151C041C9A
:1017B000103D2D0901352D0149191E6826605E680E
:1017C00066609E68A660DE681033E6601034994259
:1017D000F3D10F2345191340032B1BD91C1F0023E2
:1017E000A4080134A400CE58EE500433A342FAD129
:1017F000ED18C91803231A4005D00023CC5CEC5423
:1018000001339342FAD170BD051C002AF5D1FAE7E5
:10181000051CF2E71A1CF8E770B583073FD0541E89
:10182000002A3BD0CEB2031C032503E0621E002C2D
:1018300034D0141C01335A1E16702B42F6D1032CDF
:1018400024D9FF250D402A0215432A0415430F2CE5
:1018500011D9261C103E3609013636011A1C9B1977
:10186000156055609560D56010329342F8D10F2213
:101870001440032C0AD9261FB6080136B6001A1CDC
:101880009B1920C29342FCD103221440002C05D0A6
:10189000C9B21C1919700133A342FBD170BD141CCD
:1018A000031CCCE708B5034B002B02D0024800F024
:1018B00005F808BD00000000CD18000008B5011CA7
:1018C00000220020002300F01BF808BD38B5094BAA
:1018D000094CE41AA41009D0084AA518AD00ED1867
:1018E0002B68013C9847043D002CF9D100F0BCFB6B
:1018F00038BDC0467420000078200000FFFFFF3F85
:10190000F8B544465F4656464D469B462F4BF0B4CD
:101910001C68A4235B00051CE0580E1C90460028A0
:101920004BD043681F2B0DDC5C1C002D21D10233F2
:101930009B0044601E5000203CBC90469946A24645
:10194000AB46F8BD224B002B3CD0C820400000E045
:1019500000BF002836D0A42200235200A1584360C3
:101960000160A05040328350043283500124002D86
:10197000DDD09A0091468144424688214F467A50F4
:10198000C4225200904680444246873999401268EA
:101990008A460A439446424661461160842249467B
:1019A0005F4652008F50022DC1D1021C55468D3228
:1019B000FF3211680D431560B9E7201C4D30FF3030
:1019C000E050AEE701204042B6E7C04638200000B4
:1019D0000000000000000000000000000000000007
:1019E0002F686F6D652F75746B61727368612F441A
:1019F0006F63756D656E74732F746F636B2F737285
:101A0000632F636F6D6D6F6E2F72696E675F6275A6
:101A1000666665722E727300E019000037000000E0
:101A20003300000000000000000000000000000083
:101A3000617474656D707465642072656D61696E42
:101A400064657220776974682061206469766973BF
:101A50006F72206F66207A65726F0000301A000086
:101A60002A000000E01900003700000034000000E8
:101A70002F686F6D652F75746B61727368612F4489
:101A80006F63756D656E74732F746F636B2F7372F4
:101A9000632F70726F636573732F6D656D2E727334
:101AA000701A000030000000340000000000000048
:101AB0002F686F6D652F75746B61727368612F4449
:101AC0006F63756D656E74732F746F636B2F7372B4
:101AD000632F70726F636573732F636F6E746169C8
:101AE0006E65722E72730000B01A0000360000009E
:101AF000860000000D0D000014000000040000002E
:101B0000450A00000D0D0000100000000400000058
:101B1000650A00000D0D0000140000000400000024
:101B2000610B00000D0D0000080000000400000023
:101B30002D0C0000401B0000360000003E0000009D
:101B40002F686F6D652F75746B61727368612F44B8
:101B50006F63756D656E74732F746F636B2F737223
:101B6000632F70726F636573732F636F6E74616937
:101B70006E65722E72730000901B00003100000031
:101B80004400000000000000000000000000000011
:101B90002F686F6D652F75746B61727368612F4468
:101BA0006F63756D656E74732F746F636B2F7372D3
:101BB000632F647269766572732F6770696F2E7216
:101BC00073000000601C00003700000033000000BC
:101BD000A01C00002A000000601C0000370000006C
:101BE00034000000D01C000038000000230000007A
:101BF000101D000013000000D01C00003800000081
:101C000027000000101D000013000000D01C000081
:101C1000380000002B000000101D00001300000021
:101C2000D01C0000380000003C000000101D000027
:101C300013000000D01C0000380000004400000029
:101C4000A01C00002A000000601C000037000000FB
:101C500026000000601C0000370000002A00000081
:101C60002F686F6D652F75746B61727368612F4497
:101C70006F63756D656E74732F746F636B2F737202
:101C8000632F636F6D6D6F6E2F72696E675F627524
:101C9000666665722E72730000000000000000008E
:101CA000617474656D707465642072656D61696ED0
:101CB000646572207769746820612064697669734D
:101CC0006F72206F66207A65726F0000000000005E
:101CD0002F686F6D652F75746B61727368612F4427
:101CE0006F63756D656E74732F746F636B2F737292
:101CF000632F63686970732F6E72663531383232C4
:101D00002F6770696F2E72730000000000000000E2
:101D10006E6F742079657420696D706C656D656E89
:101D200074656400D01D00002A000000901D0000B2
:101D30003700000026000000901D00003700000062
:101D40002A000000501D0000340000008100000047
:101D50002F686F6D652F75746B61727368612F44A6
:101D60006F63756D656E74732F746F636B2F737211
:101D7000632F70726F636573732F70726F63657317
:101D8000732E7273000000000000000000000000CD
:101D90002F686F6D652F75746B61727368612F4466
:101DA0006F63756D656E74732F746F636B2F7372D1
:101DB000632F636F6D6D6F6E2F72696E675F6275F3
:101DC000666665722E72730000000000000000005D
:101DD000617474656D707465642072656D61696E9F
:101DE000646572207769746820612064697669731C
:101DF0006F72206F66207A65726F0000001F00000E
:101E000024000000301F000045000000F001000029
:101E1000801F00002B000000B01F000046000000E3
:101E20004A01000030303031303230333034303518
:101E3000303630373038303931303131313231337A
:101E40003134313531363137313831393230323160
:101E50003232323332343235323632373238323946
:101E6000333033313332333333343335333633373E
:101E70003338333934303431343234333434343524
:101E8000343634373438343935303531353235330A
:101E900035343535353635373538353936303631F0
:101EA00036323633363436353636363736383639D6
:101EB00037303731373237333734373537363737CE
:101EC00037383739383038313832383338343835B4
:101ED000383638373838383939303931393239339A
:101EE0003934393539363937393839390020000035
:101EF0002000000020200000120000000000000070
:101F0000617373657274696F6E206661696C656474
:101F10003A20696E646578203C2073656C662E6C8F
:101F2000656E28290000000000000000000000008D
:101F30002F686F6D652F75746B61727368612F44C4
:101F40006F63756D656E74732F746F636B2F657837
:101F50007465726E2F2F727573742F72757374633C
:101F60002F7372632F6C6962636F72652F736C6974
:101F700063652E7273000000000000000000000086
:101F800063616C6C656420604F7074696F6E3A3A7F
:101F9000756E77726170282960206F6E20612060F5
:101FA0004E6F6E65602076616C7565000000000004
:101FB0002F686F6D652F75746B61727368612F4444
:101FC0006F63756D656E74732F746F636B2F6578B7
:101FD0007465726E2F2F727573742F7275737463BC
:101FE0002F7372632F6C6962636F72652F6F7074E9
:101FF000696F6E2E72730000000000000000000088
:10200000696E646578206F7574206F6620626F75E5
:102010006E64733A20746865206C656E2069732065
:10202000206275742074686520696E646578206923
:1020300073200000430000008001002041970181CF
:10204000B0B00B840000000041970181B0B00D8456
:1020500000000000F8B5C046F8BC08BC9E467047BA
:10206000A5180000E9000000F8B5C046F8BC08BC9F
:102070009E467047C10000004402000000000000BE
:10208000010000001E02000000000000000000002F
:10209000000000000000000000000000031C80227F
:1020A00012019C18201C00F055F8A54600F032F8EB
:1020B00000F094F8FCE7C04680B582B000AF7860CD
:1020C0000DE0C046C046C046C046C046C046C046F9
:1020D000C046C046C046C046C046C046C0467B68F3
:1020E0005A1E7A60002BECD1BD4602B080BDC046BE
:1020F00080B582B000AF786004E0FA239B00181C22
:10210000FFF7DAFF7B685A1E7A60002BF5D1BD46D7
:1021100002B080BD80B500AF002000F029F801209A
:1021200000F026F8002000F035F8012000F044F817
:10213000FA235B00181CFFF7DBFF012000F02AF8F0
:10214000002000F039F8FA235B00181CFFF7D0FFDD
:10215000E8E7C04680B582B000AF78607B680020B9
:10216000191C00F055F8031C181CBD4602B080BDB8
:1021700080B582B000AF021CFB1D1A70FB1D1B78DE
:10218000012000211A1C00F02FF8031C181CBD466A
:1021900002B080BD80B582B000AF021CFB1D1A707A
:1021A000FB1D1B78012001211A1C00F01DF8031CE7
:1021B000181CBD4602B080BD80B582B000AF021CC5
:1021C000FB1D1A70FB1D1B78012002211A1C00F058
:1021D0000BF8031C181CBD4602B080BD80B500AFD3
:1021E00000F026F8BD4680BD80B584B000AFF86031
:1021F000B9607A60F968BA687B68081C111C1A1CFF
:1022000000F031F8031C181CBD4604B080BDC04668
:1022100080B582B000AF786039607A683B68101C86
:10222000191C00F03CF8031C181CBD4602B080BD10
:10223000F0B544464D4656465F46F0B400DFF0BC6C
:10224000A046A946B246BB46F0BDF0B444464D4652
:1022500056465F46F0B401DFF0BCA046A946B24640
:10226000BB46F0BC7047F0B444464D4656465F4608
:10227000F0B402DFF0BCA046A946B246BB46F0BCB3
:102280007047F0B444464D4656465F46F0B403DF0F
:10229000F0BCA046A946B246BB46F0BC7047F0B4BD
:1022A00044464D4656465F46F0B404DFF0BCA046B7
:0C22B000A946B246BB46F0BC70470000D7
:1022BC001CDFFF7F010000007CE2FF7FAB429780B8
:1022CC0080E6FF7F6CFDFF7FC8E6FF7F010000000A
:1022DC0068E7FF7F0884978080E7FF7FAB42978099
:1022EC0020EAFF7F01000000BCEAFF7FB0B0B080A5
:1022FC00DCEAFF7FAB42978034EDFF7F01000000EA
:10230C0030EDFF7FAB4297805CEDFF7F08849780B8
:10231C0094EDFF7F28FDFF7FC0EDFF7FAB429780E0
:08232C0050F1FF7F01000000E9
:102334000000000000000000000000000100000098
:102344000000000000000000020000000000000087
:102354000000000003000000000000000000000076
:102364000400000000000000000000000500000060
:102374000000000000000000060000000000000053
:102384000000000007000000000000000000000042
:102394000800000000000000000000000900000028
:1023A40000000000000000000A000000000000001F
:1023B400000000000B00000000000000000000000E
:1023C4000C00000000000000000000000D000000F0
:1023D40000000000000000000E00000000000000EB
:1023E400000000000F0000000000000000000000DA
:1023F40010000000000000000000000011000000B8
:1024040000000000000000001200000000000000B6
:1024140000000000130000000000000000000000A5
:10242400140000000000000000000000150000007F
:102434000000000000000000160000000000000082
:102444000000000017000000000000000000000071
:102454001800000000000000000000001900000047
:1024640000000000000000001A000000000000004E
:10247400000000001B00000000000000000000003D
:102484001C00000000000000000000001D0000000F
:1024940000000000000000001E000000000000001A
:1024A400000000001F000000000000000000000009
:1024B400000000006C040020D40400203C0500202F
:1024C4000000000000000000000000000000000008
:1024D40000000000000000000000000000000000F8
:1024E4000000000034200000000000000000000094
:1024F40000000000000000000000000000000000D8
:1025040000000000000000000000000000000000C7
:1025140000000000000000000000000000000000B7
:1025240000000000000000000000000000000000A7
:102534000000000000000000000000000000000097
:102544000000000000000000000000000000000087
:102554000000000000000000010000000000000076
:102564000E33CDAB34126DE6ECDE05000B0000003B
:102574000000000000000000000000000000000057
:102584000000000000000000000000000000000047
:102594000000000000000000000000000000000037
:1025A4000000000000000000000000000000000027
:00000001FF
